{"contracts/SwapToken.sol":{"SingleSwapToken":{"abi":[{"inputs":[],"name":"USDC","outputs":[{"internalType":"address","name":"","type":"address"}],"stateMutability":"view","type":"function"},{"inputs":[{"internalType":"uint256","name":"amountIn","type":"uint256"}],"name":"swapExactInputSingle","outputs":[{"internalType":"uint256","name":"amountOut","type":"uint256"}],"stateMutability":"nonpayable","type":"function"},{"inputs":[{"internalType":"address","name":"token1","type":"address"},{"internalType":"address","name":"token2","type":"address"},{"internalType":"uint256","name":"amountOut","type":"uint256"},{"internalType":"uint256","name":"amountInMaximum","type":"uint256"}],"name":"swapExactOutputSingle","outputs":[{"internalType":"uint256","name":"amountIn","type":"uint256"}],"stateMutability":"nonpayable","type":"function"},{"inputs":[],"name":"swapRouter","outputs":[{"internalType":"contract ISwapRouter","name":"","type":"address"}],"stateMutability":"view","type":"function"},{"inputs":[],"name":"token1","outputs":[{"internalType":"address","name":"","type":"address"}],"stateMutability":"view","type":"function"},{"inputs":[],"name":"token2","outputs":[{"internalType":"address","name":"","type":"address"}],"stateMutability":"view","type":"function"}],"evm":{"bytecode":{"linkReferences":{},"object":"608060405234801561001057600080fd5b50611039806100206000396000f3fe608060405234801561001057600080fd5b50600436106100625760003560e01c806325be124e1461006757806373bd43ad1461008557806389a30271146100b5578063bc96faa9146100d3578063c31c9c0714610103578063d21220a714610121575b600080fd5b61006f61013f565b60405161007c919061093b565b60405180910390f35b61009f600480360381019061009a9190610991565b610157565b6040516100ac91906109cd565b60405180910390f35b6100bd61030b565b6040516100ca919061093b565b60405180910390f35b6100ed60048036038101906100e89190610a14565b610323565b6040516100fa91906109cd565b60405180910390f35b61010b6104c8565b6040516101189190610ada565b60405180910390f35b6101296104e0565b604051610136919061093b565b60405180910390f35b736b175474e89094c44da98b954eedeac495271d0f81565b600061017973c02aaa39b223fe8d0a0e5c4f27ead9083c756cc23330856104f8565b6101ac73c02aaa39b223fe8d0a0e5c4f27ead9083c756cc273e592427a0aece92de3edee1f18e0157c0586156484610650565b600060405180610100016040528073c02aaa39b223fe8d0a0e5c4f27ead9083c756cc273ffffffffffffffffffffffffffffffffffffffff168152602001736b175474e89094c44da98b954eedeac495271d0f73ffffffffffffffffffffffffffffffffffffffff168152602001610bb862ffffff1681526020013373ffffffffffffffffffffffffffffffffffffffff16815260200142815260200184815260200160008152602001600073ffffffffffffffffffffffffffffffffffffffff16815250905073e592427a0aece92de3edee1f18e0157c0586156473ffffffffffffffffffffffffffffffffffffffff1663414bf389826040518263ffffffff1660e01b81526004016102c09190610be2565b6020604051808303816000875af11580156102df573d6000803e3d6000fd5b505050506040513d601f19601f820116820180604052508101906103039190610c13565b915050919050565b73a0b86991c6218b36c1d19d4a2e9eb0ce3606eb4881565b6000610331853330856104f8565b6103508573e592427a0aece92de3edee1f18e0157c0586156484610650565b60006040518061010001604052808773ffffffffffffffffffffffffffffffffffffffff1681526020018673ffffffffffffffffffffffffffffffffffffffff168152602001610bb862ffffff1681526020013373ffffffffffffffffffffffffffffffffffffffff168152602001428152602001858152602001848152602001600073ffffffffffffffffffffffffffffffffffffffff16815250905073e592427a0aece92de3edee1f18e0157c0586156473ffffffffffffffffffffffffffffffffffffffff1663db3e2198826040518263ffffffff1660e01b815260040161043b9190610ce2565b6020604051808303816000875af115801561045a573d6000803e3d6000fd5b505050506040513d601f19601f8201168201806040525081019061047e9190610c13565b9150828210156104bf576104a88673e592427a0aece92de3edee1f18e0157c058615646000610650565b6104be863384866104b99190610d2d565b6107a5565b5b50949350505050565b73e592427a0aece92de3edee1f18e0157c0586156481565b73c02aaa39b223fe8d0a0e5c4f27ead9083c756cc281565b6000808573ffffffffffffffffffffffffffffffffffffffff166323b872dd60e01b86868660405160240161052f93929190610d61565b604051602081830303815290604052907bffffffffffffffffffffffffffffffffffffffffffffffffffffffff19166020820180517bffffffffffffffffffffffffffffffffffffffffffffffffffffffff83818316178352505050506040516105999190610e09565b6000604051808303816000865af19150503d80600081146105d6576040519150601f19603f3d011682016040523d82523d6000602084013e6105db565b606091505b509150915081801561060957506000815114806106085750808060200190518101906106079190610e58565b5b5b610648576040517f08c379a000000000000000000000000000000000000000000000000000000000815260040161063f90610ee2565b60405180910390fd5b505050505050565b6000808473ffffffffffffffffffffffffffffffffffffffff1663095ea7b360e01b8585604051602401610685929190610f02565b604051602081830303815290604052907bffffffffffffffffffffffffffffffffffffffffffffffffffffffff19166020820180517bffffffffffffffffffffffffffffffffffffffffffffffffffffffff83818316178352505050506040516106ef9190610e09565b6000604051808303816000865af19150503d806000811461072c576040519150601f19603f3d011682016040523d82523d6000602084013e610731565b606091505b509150915081801561075f575060008151148061075e57508080602001905181019061075d9190610e58565b5b5b61079e576040517f08c379a000000000000000000000000000000000000000000000000000000000815260040161079590610f77565b60405180910390fd5b5050505050565b6000808473ffffffffffffffffffffffffffffffffffffffff1663a9059cbb60e01b85856040516024016107da929190610f02565b604051602081830303815290604052907bffffffffffffffffffffffffffffffffffffffffffffffffffffffff19166020820180517bffffffffffffffffffffffffffffffffffffffffffffffffffffffff83818316178352505050506040516108449190610e09565b6000604051808303816000865af19150503d8060008114610881576040519150601f19603f3d011682016040523d82523d6000602084013e610886565b606091505b50915091508180156108b457506000815114806108b35750808060200190518101906108b29190610e58565b5b5b6108f3576040517f08c379a00000000000000000000000000000000000000000000000000000000081526004016108ea90610fe3565b60405180910390fd5b5050505050565b600073ffffffffffffffffffffffffffffffffffffffff82169050919050565b6000610925826108fa565b9050919050565b6109358161091a565b82525050565b6000602082019050610950600083018461092c565b92915050565b600080fd5b6000819050919050565b61096e8161095b565b811461097957600080fd5b50565b60008135905061098b81610965565b92915050565b6000602082840312156109a7576109a6610956565b5b60006109b58482850161097c565b91505092915050565b6109c78161095b565b82525050565b60006020820190506109e260008301846109be565b92915050565b6109f18161091a565b81146109fc57600080fd5b50565b600081359050610a0e816109e8565b92915050565b60008060008060808587031215610a2e57610a2d610956565b5b6000610a3c878288016109ff565b9450506020610a4d878288016109ff565b9350506040610a5e8782880161097c565b9250506060610a6f8782880161097c565b91505092959194509250565b6000819050919050565b6000610aa0610a9b610a96846108fa565b610a7b565b6108fa565b9050919050565b6000610ab282610a85565b9050919050565b6000610ac482610aa7565b9050919050565b610ad481610ab9565b82525050565b6000602082019050610aef6000830184610acb565b92915050565b610afe8161091a565b82525050565b600062ffffff82169050919050565b610b1c81610b04565b82525050565b610b2b8161095b565b82525050565b610b3a816108fa565b82525050565b61010082016000820151610b576000850182610af5565b506020820151610b6a6020850182610af5565b506040820151610b7d6040850182610b13565b506060820151610b906060850182610af5565b506080820151610ba36080850182610b22565b5060a0820151610bb660a0850182610b22565b5060c0820151610bc960c0850182610b22565b5060e0820151610bdc60e0850182610b31565b50505050565b600061010082019050610bf86000830184610b40565b92915050565b600081519050610c0d81610965565b92915050565b600060208284031215610c2957610c28610956565b5b6000610c3784828501610bfe565b91505092915050565b61010082016000820151610c576000850182610af5565b506020820151610c6a6020850182610af5565b506040820151610c7d6040850182610b13565b506060820151610c906060850182610af5565b506080820151610ca36080850182610b22565b5060a0820151610cb660a0850182610b22565b5060c0820151610cc960c0850182610b22565b5060e0820151610cdc60e0850182610b31565b50505050565b600061010082019050610cf86000830184610c40565b92915050565b7f4e487b7100000000000000000000000000000000000000000000000000000000600052601160045260246000fd5b6000610d388261095b565b9150610d438361095b565b9250828203905081811115610d5b57610d5a610cfe565b5b92915050565b6000606082019050610d76600083018661092c565b610d83602083018561092c565b610d9060408301846109be565b949350505050565b600081519050919050565b600081905092915050565b60005b83811015610dcc578082015181840152602081019050610db1565b60008484015250505050565b6000610de382610d98565b610ded8185610da3565b9350610dfd818560208601610dae565b80840191505092915050565b6000610e158284610dd8565b915081905092915050565b60008115159050919050565b610e3581610e20565b8114610e4057600080fd5b50565b600081519050610e5281610e2c565b92915050565b600060208284031215610e6e57610e6d610956565b5b6000610e7c84828501610e43565b91505092915050565b600082825260208201905092915050565b7f5354460000000000000000000000000000000000000000000000000000000000600082015250565b6000610ecc600383610e85565b9150610ed782610e96565b602082019050919050565b60006020820190508181036000830152610efb81610ebf565b9050919050565b6000604082019050610f17600083018561092c565b610f2460208301846109be565b9392505050565b7f5341000000000000000000000000000000000000000000000000000000000000600082015250565b6000610f61600283610e85565b9150610f6c82610f2b565b602082019050919050565b60006020820190508181036000830152610f9081610f54565b9050919050565b7f5354000000000000000000000000000000000000000000000000000000000000600082015250565b6000610fcd600283610e85565b9150610fd882610f97565b602082019050919050565b60006020820190508181036000830152610ffc81610fc0565b905091905056fea264697066735822122091981d4dcea3fe189af84f8e36d5bd6f039340d95a867cecf7dc83d323b8ce8564736f6c63430008120033","opcodes":"PUSH1 0x80 PUSH1 0x40 MSTORE CALLVALUE DUP1 ISZERO PUSH2 0x10 JUMPI PUSH1 0x0 DUP1 REVERT JUMPDEST POP PUSH2 0x1039 DUP1 PUSH2 0x20 PUSH1 0x0 CODECOPY PUSH1 0x0 RETURN INVALID PUSH1 0x80 PUSH1 0x40 MSTORE CALLVALUE DUP1 ISZERO PUSH2 0x10 JUMPI PUSH1 0x0 DUP1 REVERT JUMPDEST POP PUSH1 0x4 CALLDATASIZE LT PUSH2 0x62 JUMPI PUSH1 0x0 CALLDATALOAD PUSH1 0xE0 SHR DUP1 PUSH4 0x25BE124E EQ PUSH2 0x67 JUMPI DUP1 PUSH4 0x73BD43AD EQ PUSH2 0x85 JUMPI DUP1 PUSH4 0x89A30271 EQ PUSH2 0xB5 JUMPI DUP1 PUSH4 0xBC96FAA9 EQ PUSH2 0xD3 JUMPI DUP1 PUSH4 0xC31C9C07 EQ PUSH2 0x103 JUMPI DUP1 PUSH4 0xD21220A7 EQ PUSH2 0x121 JUMPI JUMPDEST PUSH1 0x0 DUP1 REVERT JUMPDEST PUSH2 0x6F PUSH2 0x13F JUMP JUMPDEST PUSH1 0x40 MLOAD PUSH2 0x7C SWAP2 SWAP1 PUSH2 0x93B JUMP JUMPDEST PUSH1 0x40 MLOAD DUP1 SWAP2 SUB SWAP1 RETURN JUMPDEST PUSH2 0x9F PUSH1 0x4 DUP1 CALLDATASIZE SUB DUP2 ADD SWAP1 PUSH2 0x9A SWAP2 SWAP1 PUSH2 0x991 JUMP JUMPDEST PUSH2 0x157 JUMP JUMPDEST PUSH1 0x40 MLOAD PUSH2 0xAC SWAP2 SWAP1 PUSH2 0x9CD JUMP JUMPDEST PUSH1 0x40 MLOAD DUP1 SWAP2 SUB SWAP1 RETURN JUMPDEST PUSH2 0xBD PUSH2 0x30B JUMP JUMPDEST PUSH1 0x40 MLOAD PUSH2 0xCA SWAP2 SWAP1 PUSH2 0x93B JUMP JUMPDEST PUSH1 0x40 MLOAD DUP1 SWAP2 SUB SWAP1 RETURN JUMPDEST PUSH2 0xED PUSH1 0x4 DUP1 CALLDATASIZE SUB DUP2 ADD SWAP1 PUSH2 0xE8 SWAP2 SWAP1 PUSH2 0xA14 JUMP JUMPDEST PUSH2 0x323 JUMP JUMPDEST PUSH1 0x40 MLOAD PUSH2 0xFA SWAP2 SWAP1 PUSH2 0x9CD JUMP JUMPDEST PUSH1 0x40 MLOAD DUP1 SWAP2 SUB SWAP1 RETURN JUMPDEST PUSH2 0x10B PUSH2 0x4C8 JUMP JUMPDEST PUSH1 0x40 MLOAD PUSH2 0x118 SWAP2 SWAP1 PUSH2 0xADA JUMP JUMPDEST PUSH1 0x40 MLOAD DUP1 SWAP2 SUB SWAP1 RETURN JUMPDEST PUSH2 0x129 PUSH2 0x4E0 JUMP JUMPDEST PUSH1 0x40 MLOAD PUSH2 0x136 SWAP2 SWAP1 PUSH2 0x93B JUMP JUMPDEST PUSH1 0x40 MLOAD DUP1 SWAP2 SUB SWAP1 RETURN JUMPDEST PUSH20 0x6B175474E89094C44DA98B954EEDEAC495271D0F DUP2 JUMP JUMPDEST PUSH1 0x0 PUSH2 0x179 PUSH20 0xC02AAA39B223FE8D0A0E5C4F27EAD9083C756CC2 CALLER ADDRESS DUP6 PUSH2 0x4F8 JUMP JUMPDEST PUSH2 0x1AC PUSH20 0xC02AAA39B223FE8D0A0E5C4F27EAD9083C756CC2 PUSH20 0xE592427A0AECE92DE3EDEE1F18E0157C05861564 DUP5 PUSH2 0x650 JUMP JUMPDEST PUSH1 0x0 PUSH1 0x40 MLOAD DUP1 PUSH2 0x100 ADD PUSH1 0x40 MSTORE DUP1 PUSH20 0xC02AAA39B223FE8D0A0E5C4F27EAD9083C756CC2 PUSH20 0xFFFFFFFFFFFFFFFFFFFFFFFFFFFFFFFFFFFFFFFF AND DUP2 MSTORE PUSH1 0x20 ADD PUSH20 0x6B175474E89094C44DA98B954EEDEAC495271D0F PUSH20 0xFFFFFFFFFFFFFFFFFFFFFFFFFFFFFFFFFFFFFFFF AND DUP2 MSTORE PUSH1 0x20 ADD PUSH2 0xBB8 PUSH3 0xFFFFFF AND DUP2 MSTORE PUSH1 0x20 ADD CALLER PUSH20 0xFFFFFFFFFFFFFFFFFFFFFFFFFFFFFFFFFFFFFFFF AND DUP2 MSTORE PUSH1 0x20 ADD TIMESTAMP DUP2 MSTORE PUSH1 0x20 ADD DUP5 DUP2 MSTORE PUSH1 0x20 ADD PUSH1 0x0 DUP2 MSTORE PUSH1 0x20 ADD PUSH1 0x0 PUSH20 0xFFFFFFFFFFFFFFFFFFFFFFFFFFFFFFFFFFFFFFFF AND DUP2 MSTORE POP SWAP1 POP PUSH20 0xE592427A0AECE92DE3EDEE1F18E0157C05861564 PUSH20 0xFFFFFFFFFFFFFFFFFFFFFFFFFFFFFFFFFFFFFFFF AND PUSH4 0x414BF389 DUP3 PUSH1 0x40 MLOAD DUP3 PUSH4 0xFFFFFFFF AND PUSH1 0xE0 SHL DUP2 MSTORE PUSH1 0x4 ADD PUSH2 0x2C0 SWAP2 SWAP1 PUSH2 0xBE2 JUMP JUMPDEST PUSH1 0x20 PUSH1 0x40 MLOAD DUP1 DUP4 SUB DUP2 PUSH1 0x0 DUP8 GAS CALL ISZERO DUP1 ISZERO PUSH2 0x2DF JUMPI RETURNDATASIZE PUSH1 0x0 DUP1 RETURNDATACOPY RETURNDATASIZE PUSH1 0x0 REVERT JUMPDEST POP POP POP POP PUSH1 0x40 MLOAD RETURNDATASIZE PUSH1 0x1F NOT PUSH1 0x1F DUP3 ADD AND DUP3 ADD DUP1 PUSH1 0x40 MSTORE POP DUP2 ADD SWAP1 PUSH2 0x303 SWAP2 SWAP1 PUSH2 0xC13 JUMP JUMPDEST SWAP2 POP POP SWAP2 SWAP1 POP JUMP JUMPDEST PUSH20 0xA0B86991C6218B36C1D19D4A2E9EB0CE3606EB48 DUP2 JUMP JUMPDEST PUSH1 0x0 PUSH2 0x331 DUP6 CALLER ADDRESS DUP6 PUSH2 0x4F8 JUMP JUMPDEST PUSH2 0x350 DUP6 PUSH20 0xE592427A0AECE92DE3EDEE1F18E0157C05861564 DUP5 PUSH2 0x650 JUMP JUMPDEST PUSH1 0x0 PUSH1 0x40 MLOAD DUP1 PUSH2 0x100 ADD PUSH1 0x40 MSTORE DUP1 DUP8 PUSH20 0xFFFFFFFFFFFFFFFFFFFFFFFFFFFFFFFFFFFFFFFF AND DUP2 MSTORE PUSH1 0x20 ADD DUP7 PUSH20 0xFFFFFFFFFFFFFFFFFFFFFFFFFFFFFFFFFFFFFFFF AND DUP2 MSTORE PUSH1 0x20 ADD PUSH2 0xBB8 PUSH3 0xFFFFFF AND DUP2 MSTORE PUSH1 0x20 ADD CALLER PUSH20 0xFFFFFFFFFFFFFFFFFFFFFFFFFFFFFFFFFFFFFFFF AND DUP2 MSTORE PUSH1 0x20 ADD TIMESTAMP DUP2 MSTORE PUSH1 0x20 ADD DUP6 DUP2 MSTORE PUSH1 0x20 ADD DUP5 DUP2 MSTORE PUSH1 0x20 ADD PUSH1 0x0 PUSH20 0xFFFFFFFFFFFFFFFFFFFFFFFFFFFFFFFFFFFFFFFF AND DUP2 MSTORE POP SWAP1 POP PUSH20 0xE592427A0AECE92DE3EDEE1F18E0157C05861564 PUSH20 0xFFFFFFFFFFFFFFFFFFFFFFFFFFFFFFFFFFFFFFFF AND PUSH4 0xDB3E2198 DUP3 PUSH1 0x40 MLOAD DUP3 PUSH4 0xFFFFFFFF AND PUSH1 0xE0 SHL DUP2 MSTORE PUSH1 0x4 ADD PUSH2 0x43B SWAP2 SWAP1 PUSH2 0xCE2 JUMP JUMPDEST PUSH1 0x20 PUSH1 0x40 MLOAD DUP1 DUP4 SUB DUP2 PUSH1 0x0 DUP8 GAS CALL ISZERO DUP1 ISZERO PUSH2 0x45A JUMPI RETURNDATASIZE PUSH1 0x0 DUP1 RETURNDATACOPY RETURNDATASIZE PUSH1 0x0 REVERT JUMPDEST POP POP POP POP PUSH1 0x40 MLOAD RETURNDATASIZE PUSH1 0x1F NOT PUSH1 0x1F DUP3 ADD AND DUP3 ADD DUP1 PUSH1 0x40 MSTORE POP DUP2 ADD SWAP1 PUSH2 0x47E SWAP2 SWAP1 PUSH2 0xC13 JUMP JUMPDEST SWAP2 POP DUP3 DUP3 LT ISZERO PUSH2 0x4BF JUMPI PUSH2 0x4A8 DUP7 PUSH20 0xE592427A0AECE92DE3EDEE1F18E0157C05861564 PUSH1 0x0 PUSH2 0x650 JUMP JUMPDEST PUSH2 0x4BE DUP7 CALLER DUP5 DUP7 PUSH2 0x4B9 SWAP2 SWAP1 PUSH2 0xD2D JUMP JUMPDEST PUSH2 0x7A5 JUMP JUMPDEST JUMPDEST POP SWAP5 SWAP4 POP POP POP POP JUMP JUMPDEST PUSH20 0xE592427A0AECE92DE3EDEE1F18E0157C05861564 DUP2 JUMP JUMPDEST PUSH20 0xC02AAA39B223FE8D0A0E5C4F27EAD9083C756CC2 DUP2 JUMP JUMPDEST PUSH1 0x0 DUP1 DUP6 PUSH20 0xFFFFFFFFFFFFFFFFFFFFFFFFFFFFFFFFFFFFFFFF AND PUSH4 0x23B872DD PUSH1 0xE0 SHL DUP7 DUP7 DUP7 PUSH1 0x40 MLOAD PUSH1 0x24 ADD PUSH2 0x52F SWAP4 SWAP3 SWAP2 SWAP1 PUSH2 0xD61 JUMP JUMPDEST PUSH1 0x40 MLOAD PUSH1 0x20 DUP2 DUP4 SUB SUB DUP2 MSTORE SWAP1 PUSH1 0x40 MSTORE SWAP1 PUSH28 0xFFFFFFFFFFFFFFFFFFFFFFFFFFFFFFFFFFFFFFFFFFFFFFFFFFFFFFFF NOT AND PUSH1 0x20 DUP3 ADD DUP1 MLOAD PUSH28 0xFFFFFFFFFFFFFFFFFFFFFFFFFFFFFFFFFFFFFFFFFFFFFFFFFFFFFFFF DUP4 DUP2 DUP4 AND OR DUP4 MSTORE POP POP POP POP PUSH1 0x40 MLOAD PUSH2 0x599 SWAP2 SWAP1 PUSH2 0xE09 JUMP JUMPDEST PUSH1 0x0 PUSH1 0x40 MLOAD DUP1 DUP4 SUB DUP2 PUSH1 0x0 DUP7 GAS CALL SWAP2 POP POP RETURNDATASIZE DUP1 PUSH1 0x0 DUP2 EQ PUSH2 0x5D6 JUMPI PUSH1 0x40 MLOAD SWAP2 POP PUSH1 0x1F NOT PUSH1 0x3F RETURNDATASIZE ADD AND DUP3 ADD PUSH1 0x40 MSTORE RETURNDATASIZE DUP3 MSTORE RETURNDATASIZE PUSH1 0x0 PUSH1 0x20 DUP5 ADD RETURNDATACOPY PUSH2 0x5DB JUMP JUMPDEST PUSH1 0x60 SWAP2 POP JUMPDEST POP SWAP2 POP SWAP2 POP DUP2 DUP1 ISZERO PUSH2 0x609 JUMPI POP PUSH1 0x0 DUP2 MLOAD EQ DUP1 PUSH2 0x608 JUMPI POP DUP1 DUP1 PUSH1 0x20 ADD SWAP1 MLOAD DUP2 ADD SWAP1 PUSH2 0x607 SWAP2 SWAP1 PUSH2 0xE58 JUMP JUMPDEST JUMPDEST JUMPDEST PUSH2 0x648 JUMPI PUSH1 0x40 MLOAD PUSH32 0x8C379A000000000000000000000000000000000000000000000000000000000 DUP2 MSTORE PUSH1 0x4 ADD PUSH2 0x63F SWAP1 PUSH2 0xEE2 JUMP JUMPDEST PUSH1 0x40 MLOAD DUP1 SWAP2 SUB SWAP1 REVERT JUMPDEST POP POP POP POP POP POP JUMP JUMPDEST PUSH1 0x0 DUP1 DUP5 PUSH20 0xFFFFFFFFFFFFFFFFFFFFFFFFFFFFFFFFFFFFFFFF AND PUSH4 0x95EA7B3 PUSH1 0xE0 SHL DUP6 DUP6 PUSH1 0x40 MLOAD PUSH1 0x24 ADD PUSH2 0x685 SWAP3 SWAP2 SWAP1 PUSH2 0xF02 JUMP JUMPDEST PUSH1 0x40 MLOAD PUSH1 0x20 DUP2 DUP4 SUB SUB DUP2 MSTORE SWAP1 PUSH1 0x40 MSTORE SWAP1 PUSH28 0xFFFFFFFFFFFFFFFFFFFFFFFFFFFFFFFFFFFFFFFFFFFFFFFFFFFFFFFF NOT AND PUSH1 0x20 DUP3 ADD DUP1 MLOAD PUSH28 0xFFFFFFFFFFFFFFFFFFFFFFFFFFFFFFFFFFFFFFFFFFFFFFFFFFFFFFFF DUP4 DUP2 DUP4 AND OR DUP4 MSTORE POP POP POP POP PUSH1 0x40 MLOAD PUSH2 0x6EF SWAP2 SWAP1 PUSH2 0xE09 JUMP JUMPDEST PUSH1 0x0 PUSH1 0x40 MLOAD DUP1 DUP4 SUB DUP2 PUSH1 0x0 DUP7 GAS CALL SWAP2 POP POP RETURNDATASIZE DUP1 PUSH1 0x0 DUP2 EQ PUSH2 0x72C JUMPI PUSH1 0x40 MLOAD SWAP2 POP PUSH1 0x1F NOT PUSH1 0x3F RETURNDATASIZE ADD AND DUP3 ADD PUSH1 0x40 MSTORE RETURNDATASIZE DUP3 MSTORE RETURNDATASIZE PUSH1 0x0 PUSH1 0x20 DUP5 ADD RETURNDATACOPY PUSH2 0x731 JUMP JUMPDEST PUSH1 0x60 SWAP2 POP JUMPDEST POP SWAP2 POP SWAP2 POP DUP2 DUP1 ISZERO PUSH2 0x75F JUMPI POP PUSH1 0x0 DUP2 MLOAD EQ DUP1 PUSH2 0x75E JUMPI POP DUP1 DUP1 PUSH1 0x20 ADD SWAP1 MLOAD DUP2 ADD SWAP1 PUSH2 0x75D SWAP2 SWAP1 PUSH2 0xE58 JUMP JUMPDEST JUMPDEST JUMPDEST PUSH2 0x79E JUMPI PUSH1 0x40 MLOAD PUSH32 0x8C379A000000000000000000000000000000000000000000000000000000000 DUP2 MSTORE PUSH1 0x4 ADD PUSH2 0x795 SWAP1 PUSH2 0xF77 JUMP JUMPDEST PUSH1 0x40 MLOAD DUP1 SWAP2 SUB SWAP1 REVERT JUMPDEST POP POP POP POP POP JUMP JUMPDEST PUSH1 0x0 DUP1 DUP5 PUSH20 0xFFFFFFFFFFFFFFFFFFFFFFFFFFFFFFFFFFFFFFFF AND PUSH4 0xA9059CBB PUSH1 0xE0 SHL DUP6 DUP6 PUSH1 0x40 MLOAD PUSH1 0x24 ADD PUSH2 0x7DA SWAP3 SWAP2 SWAP1 PUSH2 0xF02 JUMP JUMPDEST PUSH1 0x40 MLOAD PUSH1 0x20 DUP2 DUP4 SUB SUB DUP2 MSTORE SWAP1 PUSH1 0x40 MSTORE SWAP1 PUSH28 0xFFFFFFFFFFFFFFFFFFFFFFFFFFFFFFFFFFFFFFFFFFFFFFFFFFFFFFFF NOT AND PUSH1 0x20 DUP3 ADD DUP1 MLOAD PUSH28 0xFFFFFFFFFFFFFFFFFFFFFFFFFFFFFFFFFFFFFFFFFFFFFFFFFFFFFFFF DUP4 DUP2 DUP4 AND OR DUP4 MSTORE POP POP POP POP PUSH1 0x40 MLOAD PUSH2 0x844 SWAP2 SWAP1 PUSH2 0xE09 JUMP JUMPDEST PUSH1 0x0 PUSH1 0x40 MLOAD DUP1 DUP4 SUB DUP2 PUSH1 0x0 DUP7 GAS CALL SWAP2 POP POP RETURNDATASIZE DUP1 PUSH1 0x0 DUP2 EQ PUSH2 0x881 JUMPI PUSH1 0x40 MLOAD SWAP2 POP PUSH1 0x1F NOT PUSH1 0x3F RETURNDATASIZE ADD AND DUP3 ADD PUSH1 0x40 MSTORE RETURNDATASIZE DUP3 MSTORE RETURNDATASIZE PUSH1 0x0 PUSH1 0x20 DUP5 ADD RETURNDATACOPY PUSH2 0x886 JUMP JUMPDEST PUSH1 0x60 SWAP2 POP JUMPDEST POP SWAP2 POP SWAP2 POP DUP2 DUP1 ISZERO PUSH2 0x8B4 JUMPI POP PUSH1 0x0 DUP2 MLOAD EQ DUP1 PUSH2 0x8B3 JUMPI POP DUP1 DUP1 PUSH1 0x20 ADD SWAP1 MLOAD DUP2 ADD SWAP1 PUSH2 0x8B2 SWAP2 SWAP1 PUSH2 0xE58 JUMP JUMPDEST JUMPDEST JUMPDEST PUSH2 0x8F3 JUMPI PUSH1 0x40 MLOAD PUSH32 0x8C379A000000000000000000000000000000000000000000000000000000000 DUP2 MSTORE PUSH1 0x4 ADD PUSH2 0x8EA SWAP1 PUSH2 0xFE3 JUMP JUMPDEST PUSH1 0x40 MLOAD DUP1 SWAP2 SUB SWAP1 REVERT JUMPDEST POP POP POP POP POP JUMP JUMPDEST PUSH1 0x0 PUSH20 0xFFFFFFFFFFFFFFFFFFFFFFFFFFFFFFFFFFFFFFFF DUP3 AND SWAP1 POP SWAP2 SWAP1 POP JUMP JUMPDEST PUSH1 0x0 PUSH2 0x925 DUP3 PUSH2 0x8FA JUMP JUMPDEST SWAP1 POP SWAP2 SWAP1 POP JUMP JUMPDEST PUSH2 0x935 DUP2 PUSH2 0x91A JUMP JUMPDEST DUP3 MSTORE POP POP JUMP JUMPDEST PUSH1 0x0 PUSH1 0x20 DUP3 ADD SWAP1 POP PUSH2 0x950 PUSH1 0x0 DUP4 ADD DUP5 PUSH2 0x92C JUMP JUMPDEST SWAP3 SWAP2 POP POP JUMP JUMPDEST PUSH1 0x0 DUP1 REVERT JUMPDEST PUSH1 0x0 DUP2 SWAP1 POP SWAP2 SWAP1 POP JUMP JUMPDEST PUSH2 0x96E DUP2 PUSH2 0x95B JUMP JUMPDEST DUP2 EQ PUSH2 0x979 JUMPI PUSH1 0x0 DUP1 REVERT JUMPDEST POP JUMP JUMPDEST PUSH1 0x0 DUP2 CALLDATALOAD SWAP1 POP PUSH2 0x98B DUP2 PUSH2 0x965 JUMP JUMPDEST SWAP3 SWAP2 POP POP JUMP JUMPDEST PUSH1 0x0 PUSH1 0x20 DUP3 DUP5 SUB SLT ISZERO PUSH2 0x9A7 JUMPI PUSH2 0x9A6 PUSH2 0x956 JUMP JUMPDEST JUMPDEST PUSH1 0x0 PUSH2 0x9B5 DUP5 DUP3 DUP6 ADD PUSH2 0x97C JUMP JUMPDEST SWAP2 POP POP SWAP3 SWAP2 POP POP JUMP JUMPDEST PUSH2 0x9C7 DUP2 PUSH2 0x95B JUMP JUMPDEST DUP3 MSTORE POP POP JUMP JUMPDEST PUSH1 0x0 PUSH1 0x20 DUP3 ADD SWAP1 POP PUSH2 0x9E2 PUSH1 0x0 DUP4 ADD DUP5 PUSH2 0x9BE JUMP JUMPDEST SWAP3 SWAP2 POP POP JUMP JUMPDEST PUSH2 0x9F1 DUP2 PUSH2 0x91A JUMP JUMPDEST DUP2 EQ PUSH2 0x9FC JUMPI PUSH1 0x0 DUP1 REVERT JUMPDEST POP JUMP JUMPDEST PUSH1 0x0 DUP2 CALLDATALOAD SWAP1 POP PUSH2 0xA0E DUP2 PUSH2 0x9E8 JUMP JUMPDEST SWAP3 SWAP2 POP POP JUMP JUMPDEST PUSH1 0x0 DUP1 PUSH1 0x0 DUP1 PUSH1 0x80 DUP6 DUP8 SUB SLT ISZERO PUSH2 0xA2E JUMPI PUSH2 0xA2D PUSH2 0x956 JUMP JUMPDEST JUMPDEST PUSH1 0x0 PUSH2 0xA3C DUP8 DUP3 DUP9 ADD PUSH2 0x9FF JUMP JUMPDEST SWAP5 POP POP PUSH1 0x20 PUSH2 0xA4D DUP8 DUP3 DUP9 ADD PUSH2 0x9FF JUMP JUMPDEST SWAP4 POP POP PUSH1 0x40 PUSH2 0xA5E DUP8 DUP3 DUP9 ADD PUSH2 0x97C JUMP JUMPDEST SWAP3 POP POP PUSH1 0x60 PUSH2 0xA6F DUP8 DUP3 DUP9 ADD PUSH2 0x97C JUMP JUMPDEST SWAP2 POP POP SWAP3 SWAP6 SWAP2 SWAP5 POP SWAP3 POP JUMP JUMPDEST PUSH1 0x0 DUP2 SWAP1 POP SWAP2 SWAP1 POP JUMP JUMPDEST PUSH1 0x0 PUSH2 0xAA0 PUSH2 0xA9B PUSH2 0xA96 DUP5 PUSH2 0x8FA JUMP JUMPDEST PUSH2 0xA7B JUMP JUMPDEST PUSH2 0x8FA JUMP JUMPDEST SWAP1 POP SWAP2 SWAP1 POP JUMP JUMPDEST PUSH1 0x0 PUSH2 0xAB2 DUP3 PUSH2 0xA85 JUMP JUMPDEST SWAP1 POP SWAP2 SWAP1 POP JUMP JUMPDEST PUSH1 0x0 PUSH2 0xAC4 DUP3 PUSH2 0xAA7 JUMP JUMPDEST SWAP1 POP SWAP2 SWAP1 POP JUMP JUMPDEST PUSH2 0xAD4 DUP2 PUSH2 0xAB9 JUMP JUMPDEST DUP3 MSTORE POP POP JUMP JUMPDEST PUSH1 0x0 PUSH1 0x20 DUP3 ADD SWAP1 POP PUSH2 0xAEF PUSH1 0x0 DUP4 ADD DUP5 PUSH2 0xACB JUMP JUMPDEST SWAP3 SWAP2 POP POP JUMP JUMPDEST PUSH2 0xAFE DUP2 PUSH2 0x91A JUMP JUMPDEST DUP3 MSTORE POP POP JUMP JUMPDEST PUSH1 0x0 PUSH3 0xFFFFFF DUP3 AND SWAP1 POP SWAP2 SWAP1 POP JUMP JUMPDEST PUSH2 0xB1C DUP2 PUSH2 0xB04 JUMP JUMPDEST DUP3 MSTORE POP POP JUMP JUMPDEST PUSH2 0xB2B DUP2 PUSH2 0x95B JUMP JUMPDEST DUP3 MSTORE POP POP JUMP JUMPDEST PUSH2 0xB3A DUP2 PUSH2 0x8FA JUMP JUMPDEST DUP3 MSTORE POP POP JUMP JUMPDEST PUSH2 0x100 DUP3 ADD PUSH1 0x0 DUP3 ADD MLOAD PUSH2 0xB57 PUSH1 0x0 DUP6 ADD DUP3 PUSH2 0xAF5 JUMP JUMPDEST POP PUSH1 0x20 DUP3 ADD MLOAD PUSH2 0xB6A PUSH1 0x20 DUP6 ADD DUP3 PUSH2 0xAF5 JUMP JUMPDEST POP PUSH1 0x40 DUP3 ADD MLOAD PUSH2 0xB7D PUSH1 0x40 DUP6 ADD DUP3 PUSH2 0xB13 JUMP JUMPDEST POP PUSH1 0x60 DUP3 ADD MLOAD PUSH2 0xB90 PUSH1 0x60 DUP6 ADD DUP3 PUSH2 0xAF5 JUMP JUMPDEST POP PUSH1 0x80 DUP3 ADD MLOAD PUSH2 0xBA3 PUSH1 0x80 DUP6 ADD DUP3 PUSH2 0xB22 JUMP JUMPDEST POP PUSH1 0xA0 DUP3 ADD MLOAD PUSH2 0xBB6 PUSH1 0xA0 DUP6 ADD DUP3 PUSH2 0xB22 JUMP JUMPDEST POP PUSH1 0xC0 DUP3 ADD MLOAD PUSH2 0xBC9 PUSH1 0xC0 DUP6 ADD DUP3 PUSH2 0xB22 JUMP JUMPDEST POP PUSH1 0xE0 DUP3 ADD MLOAD PUSH2 0xBDC PUSH1 0xE0 DUP6 ADD DUP3 PUSH2 0xB31 JUMP JUMPDEST POP POP POP POP JUMP JUMPDEST PUSH1 0x0 PUSH2 0x100 DUP3 ADD SWAP1 POP PUSH2 0xBF8 PUSH1 0x0 DUP4 ADD DUP5 PUSH2 0xB40 JUMP JUMPDEST SWAP3 SWAP2 POP POP JUMP JUMPDEST PUSH1 0x0 DUP2 MLOAD SWAP1 POP PUSH2 0xC0D DUP2 PUSH2 0x965 JUMP JUMPDEST SWAP3 SWAP2 POP POP JUMP JUMPDEST PUSH1 0x0 PUSH1 0x20 DUP3 DUP5 SUB SLT ISZERO PUSH2 0xC29 JUMPI PUSH2 0xC28 PUSH2 0x956 JUMP JUMPDEST JUMPDEST PUSH1 0x0 PUSH2 0xC37 DUP5 DUP3 DUP6 ADD PUSH2 0xBFE JUMP JUMPDEST SWAP2 POP POP SWAP3 SWAP2 POP POP JUMP JUMPDEST PUSH2 0x100 DUP3 ADD PUSH1 0x0 DUP3 ADD MLOAD PUSH2 0xC57 PUSH1 0x0 DUP6 ADD DUP3 PUSH2 0xAF5 JUMP JUMPDEST POP PUSH1 0x20 DUP3 ADD MLOAD PUSH2 0xC6A PUSH1 0x20 DUP6 ADD DUP3 PUSH2 0xAF5 JUMP JUMPDEST POP PUSH1 0x40 DUP3 ADD MLOAD PUSH2 0xC7D PUSH1 0x40 DUP6 ADD DUP3 PUSH2 0xB13 JUMP JUMPDEST POP PUSH1 0x60 DUP3 ADD MLOAD PUSH2 0xC90 PUSH1 0x60 DUP6 ADD DUP3 PUSH2 0xAF5 JUMP JUMPDEST POP PUSH1 0x80 DUP3 ADD MLOAD PUSH2 0xCA3 PUSH1 0x80 DUP6 ADD DUP3 PUSH2 0xB22 JUMP JUMPDEST POP PUSH1 0xA0 DUP3 ADD MLOAD PUSH2 0xCB6 PUSH1 0xA0 DUP6 ADD DUP3 PUSH2 0xB22 JUMP JUMPDEST POP PUSH1 0xC0 DUP3 ADD MLOAD PUSH2 0xCC9 PUSH1 0xC0 DUP6 ADD DUP3 PUSH2 0xB22 JUMP JUMPDEST POP PUSH1 0xE0 DUP3 ADD MLOAD PUSH2 0xCDC PUSH1 0xE0 DUP6 ADD DUP3 PUSH2 0xB31 JUMP JUMPDEST POP POP POP POP JUMP JUMPDEST PUSH1 0x0 PUSH2 0x100 DUP3 ADD SWAP1 POP PUSH2 0xCF8 PUSH1 0x0 DUP4 ADD DUP5 PUSH2 0xC40 JUMP JUMPDEST SWAP3 SWAP2 POP POP JUMP JUMPDEST PUSH32 0x4E487B7100000000000000000000000000000000000000000000000000000000 PUSH1 0x0 MSTORE PUSH1 0x11 PUSH1 0x4 MSTORE PUSH1 0x24 PUSH1 0x0 REVERT JUMPDEST PUSH1 0x0 PUSH2 0xD38 DUP3 PUSH2 0x95B JUMP JUMPDEST SWAP2 POP PUSH2 0xD43 DUP4 PUSH2 0x95B JUMP JUMPDEST SWAP3 POP DUP3 DUP3 SUB SWAP1 POP DUP2 DUP2 GT ISZERO PUSH2 0xD5B JUMPI PUSH2 0xD5A PUSH2 0xCFE JUMP JUMPDEST JUMPDEST SWAP3 SWAP2 POP POP JUMP JUMPDEST PUSH1 0x0 PUSH1 0x60 DUP3 ADD SWAP1 POP PUSH2 0xD76 PUSH1 0x0 DUP4 ADD DUP7 PUSH2 0x92C JUMP JUMPDEST PUSH2 0xD83 PUSH1 0x20 DUP4 ADD DUP6 PUSH2 0x92C JUMP JUMPDEST PUSH2 0xD90 PUSH1 0x40 DUP4 ADD DUP5 PUSH2 0x9BE JUMP JUMPDEST SWAP5 SWAP4 POP POP POP POP JUMP JUMPDEST PUSH1 0x0 DUP2 MLOAD SWAP1 POP SWAP2 SWAP1 POP JUMP JUMPDEST PUSH1 0x0 DUP2 SWAP1 POP SWAP3 SWAP2 POP POP JUMP JUMPDEST PUSH1 0x0 JUMPDEST DUP4 DUP2 LT ISZERO PUSH2 0xDCC JUMPI DUP1 DUP3 ADD MLOAD DUP2 DUP5 ADD MSTORE PUSH1 0x20 DUP2 ADD SWAP1 POP PUSH2 0xDB1 JUMP JUMPDEST PUSH1 0x0 DUP5 DUP5 ADD MSTORE POP POP POP POP JUMP JUMPDEST PUSH1 0x0 PUSH2 0xDE3 DUP3 PUSH2 0xD98 JUMP JUMPDEST PUSH2 0xDED DUP2 DUP6 PUSH2 0xDA3 JUMP JUMPDEST SWAP4 POP PUSH2 0xDFD DUP2 DUP6 PUSH1 0x20 DUP7 ADD PUSH2 0xDAE JUMP JUMPDEST DUP1 DUP5 ADD SWAP2 POP POP SWAP3 SWAP2 POP POP JUMP JUMPDEST PUSH1 0x0 PUSH2 0xE15 DUP3 DUP5 PUSH2 0xDD8 JUMP JUMPDEST SWAP2 POP DUP2 SWAP1 POP SWAP3 SWAP2 POP POP JUMP JUMPDEST PUSH1 0x0 DUP2 ISZERO ISZERO SWAP1 POP SWAP2 SWAP1 POP JUMP JUMPDEST PUSH2 0xE35 DUP2 PUSH2 0xE20 JUMP JUMPDEST DUP2 EQ PUSH2 0xE40 JUMPI PUSH1 0x0 DUP1 REVERT JUMPDEST POP JUMP JUMPDEST PUSH1 0x0 DUP2 MLOAD SWAP1 POP PUSH2 0xE52 DUP2 PUSH2 0xE2C JUMP JUMPDEST SWAP3 SWAP2 POP POP JUMP JUMPDEST PUSH1 0x0 PUSH1 0x20 DUP3 DUP5 SUB SLT ISZERO PUSH2 0xE6E JUMPI PUSH2 0xE6D PUSH2 0x956 JUMP JUMPDEST JUMPDEST PUSH1 0x0 PUSH2 0xE7C DUP5 DUP3 DUP6 ADD PUSH2 0xE43 JUMP JUMPDEST SWAP2 POP POP SWAP3 SWAP2 POP POP JUMP JUMPDEST PUSH1 0x0 DUP3 DUP3 MSTORE PUSH1 0x20 DUP3 ADD SWAP1 POP SWAP3 SWAP2 POP POP JUMP JUMPDEST PUSH32 0x5354460000000000000000000000000000000000000000000000000000000000 PUSH1 0x0 DUP3 ADD MSTORE POP JUMP JUMPDEST PUSH1 0x0 PUSH2 0xECC PUSH1 0x3 DUP4 PUSH2 0xE85 JUMP JUMPDEST SWAP2 POP PUSH2 0xED7 DUP3 PUSH2 0xE96 JUMP JUMPDEST PUSH1 0x20 DUP3 ADD SWAP1 POP SWAP2 SWAP1 POP JUMP JUMPDEST PUSH1 0x0 PUSH1 0x20 DUP3 ADD SWAP1 POP DUP2 DUP2 SUB PUSH1 0x0 DUP4 ADD MSTORE PUSH2 0xEFB DUP2 PUSH2 0xEBF JUMP JUMPDEST SWAP1 POP SWAP2 SWAP1 POP JUMP JUMPDEST PUSH1 0x0 PUSH1 0x40 DUP3 ADD SWAP1 POP PUSH2 0xF17 PUSH1 0x0 DUP4 ADD DUP6 PUSH2 0x92C JUMP JUMPDEST PUSH2 0xF24 PUSH1 0x20 DUP4 ADD DUP5 PUSH2 0x9BE JUMP JUMPDEST SWAP4 SWAP3 POP POP POP JUMP JUMPDEST PUSH32 0x5341000000000000000000000000000000000000000000000000000000000000 PUSH1 0x0 DUP3 ADD MSTORE POP JUMP JUMPDEST PUSH1 0x0 PUSH2 0xF61 PUSH1 0x2 DUP4 PUSH2 0xE85 JUMP JUMPDEST SWAP2 POP PUSH2 0xF6C DUP3 PUSH2 0xF2B JUMP JUMPDEST PUSH1 0x20 DUP3 ADD SWAP1 POP SWAP2 SWAP1 POP JUMP JUMPDEST PUSH1 0x0 PUSH1 0x20 DUP3 ADD SWAP1 POP DUP2 DUP2 SUB PUSH1 0x0 DUP4 ADD MSTORE PUSH2 0xF90 DUP2 PUSH2 0xF54 JUMP JUMPDEST SWAP1 POP SWAP2 SWAP1 POP JUMP JUMPDEST PUSH32 0x5354000000000000000000000000000000000000000000000000000000000000 PUSH1 0x0 DUP3 ADD MSTORE POP JUMP JUMPDEST PUSH1 0x0 PUSH2 0xFCD PUSH1 0x2 DUP4 PUSH2 0xE85 JUMP JUMPDEST SWAP2 POP PUSH2 0xFD8 DUP3 PUSH2 0xF97 JUMP JUMPDEST PUSH1 0x20 DUP3 ADD SWAP1 POP SWAP2 SWAP1 POP JUMP JUMPDEST PUSH1 0x0 PUSH1 0x20 DUP3 ADD SWAP1 POP DUP2 DUP2 SUB PUSH1 0x0 DUP4 ADD MSTORE PUSH2 0xFFC DUP2 PUSH2 0xFC0 JUMP JUMPDEST SWAP1 POP SWAP2 SWAP1 POP JUMP INVALID LOG2 PUSH5 0x6970667358 0x22 SLT KECCAK256 SWAP2 SWAP9 SAR 0x4D 0xCE LOG3 INVALID XOR SWAP11 0xF8 0x4F DUP15 CALLDATASIZE 0xD5 0xBD PUSH16 0x39340D95A867CECF7DC83D323B8CE85 PUSH5 0x736F6C6343 STOP ADDMOD SLT STOP CALLER "},"methodIdentifiers":{"USDC()":"89a30271","swapExactInputSingle(uint256)":"73bd43ad","swapExactOutputSingle(address,address,uint256,uint256)":"bc96faa9","swapRouter()":"c31c9c07","token1()":"d21220a7","token2()":"25be124e"}}}}}