{"contracts/Liquidity.sol":{"LiquidityExamples":{"abi":[{"inputs":[],"name":"DAI","outputs":[{"internalType":"address","name":"","type":"address"}],"stateMutability":"view","type":"function"},{"inputs":[],"name":"USDC","outputs":[{"internalType":"address","name":"","type":"address"}],"stateMutability":"view","type":"function"},{"inputs":[],"name":"collectAllFees","outputs":[{"internalType":"uint256","name":"amount0","type":"uint256"},{"internalType":"uint256","name":"amount1","type":"uint256"}],"stateMutability":"nonpayable","type":"function"},{"inputs":[{"internalType":"uint128","name":"liquidity","type":"uint128"}],"name":"decreaseLiquidity","outputs":[{"internalType":"uint256","name":"amount0","type":"uint256"},{"internalType":"uint256","name":"amount1","type":"uint256"}],"stateMutability":"nonpayable","type":"function"},{"inputs":[{"internalType":"uint256","name":"","type":"uint256"}],"name":"deposits","outputs":[{"internalType":"address","name":"owner","type":"address"},{"internalType":"uint128","name":"liquidity","type":"uint128"},{"internalType":"address","name":"token0","type":"address"},{"internalType":"address","name":"token1","type":"address"}],"stateMutability":"view","type":"function"},{"inputs":[{"internalType":"uint256","name":"_tokenId","type":"uint256"}],"name":"getLiquidity","outputs":[{"internalType":"uint128","name":"","type":"uint128"}],"stateMutability":"view","type":"function"},{"inputs":[{"internalType":"uint256","name":"amountAdd0","type":"uint256"},{"internalType":"uint256","name":"amountAdd1","type":"uint256"}],"name":"increaseLiquidityCurrentRange","outputs":[{"internalType":"uint128","name":"liquidity","type":"uint128"},{"internalType":"uint256","name":"amount0","type":"uint256"},{"internalType":"uint256","name":"amount1","type":"uint256"}],"stateMutability":"nonpayable","type":"function"},{"inputs":[],"name":"mintNewPosition","outputs":[{"internalType":"uint256","name":"_tokenId","type":"uint256"},{"internalType":"uint128","name":"liquidity","type":"uint128"},{"internalType":"uint256","name":"amount0","type":"uint256"},{"internalType":"uint256","name":"amount1","type":"uint256"}],"stateMutability":"nonpayable","type":"function"},{"inputs":[],"name":"nonfungiblePositionManager","outputs":[{"internalType":"contract INonfungiblePositionManager","name":"","type":"address"}],"stateMutability":"view","type":"function"},{"inputs":[{"internalType":"address","name":"operator","type":"address"},{"internalType":"address","name":"","type":"address"},{"internalType":"uint256","name":"_tokenId","type":"uint256"},{"internalType":"bytes","name":"","type":"bytes"}],"name":"onERC721Received","outputs":[{"internalType":"bytes4","name":"","type":"bytes4"}],"stateMutability":"nonpayable","type":"function"},{"inputs":[],"name":"poolFee","outputs":[{"internalType":"uint24","name":"","type":"uint24"}],"stateMutability":"view","type":"function"},{"inputs":[],"name":"tokenId","outputs":[{"internalType":"uint256","name":"","type":"uint256"}],"stateMutability":"view","type":"function"}],"evm":{"bytecode":{"linkReferences":{},"object":"6080604052600080546001600160a01b03191673c36442b4a4522e871399cd717abdd847ab11fe8817905534801561003657600080fd5b50611772806100466000396000f3fe608060405234801561001057600080fd5b50600436106100d45760003560e01c806389a3027111610081578063b44a27221161005b578063b44a2722146101d4578063da406491146101dc578063e0bab4c4146101ef576100d4565b806389a302711461017c578063951583c314610191578063b02c43d0146101b1576100d4565b8063306d9c61116100b2578063306d9c611461012c578063558954c914610144578063686f2c9014610166576100d4565b8063089fe6aa146100d9578063150b7a02146100f757806317d70f7c14610117575b600080fd5b6100e16101f7565b6040516100ee91906116c4565b60405180910390f35b61010a61010536600461121a565b6101fc565b6040516100ee91906114ea565b61011f610233565b6040516100ee91906116d4565b610134610239565b6040516100ee94939291906116dd565b610157610152366004611362565b610492565b6040516100ee939291906116a3565b61016e6106a4565b6040516100ee929190611701565b6101846107f2565b6040516100ee91906114a2565b6101a461019f36600461130d565b61080a565b6040516100ee919061168f565b6101c46101bf36600461130d565b6108a1565b6040516100ee94939291906114b6565b6101846108e2565b61016e6101ea3660046112b4565b6108f1565b610184610a1f565b606481565b60006102088685610a37565b507f150b7a020000000000000000000000000000000000000000000000000000000095945050505050565b60025481565b6000805481908190819068056bc75e2d63100000906305f5e1009061027d90736b175474e89094c44da98b954eedeac495271d0f906001600160a01b031684610c6b565b6000546102a99073a0b86991c6218b36c1d19d4a2e9eb0ce3606eb48906001600160a01b031683610c6b565b6040805161016081018252736b175474e89094c44da98b954eedeac495271d0f815273a0b86991c6218b36c1d19d4a2e9eb0ce3606eb486020820152606481830152620d89e7196060820152620d89e8608082015260a0810184905260c08101839052600060e08201819052610100820181905230610120830152426101408301525491517f8831645600000000000000000000000000000000000000000000000000000000815290916001600160a01b0316906388316456906103719084906004016115e1565b608060405180830381600087803b15801561038b57600080fd5b505af115801561039f573d6000803e3d6000fd5b505050506040513d601f19601f820116820180604052508101906103c39190611325565b929950909750955093506103d73388610a37565b82851015610430576000805461040c91736b175474e89094c44da98b954eedeac495271d0f916001600160a01b031690610c6b565b84830361042e736b175474e89094c44da98b954eedeac495271d0f3383610ded565b505b8184101561048957600080546104659173a0b86991c6218b36c1d19d4a2e9eb0ce3606eb48916001600160a01b031690610c6b565b83820361048773a0b86991c6218b36c1d19d4a2e9eb0ce3606eb483383610ded565b505b50505090919293565b60008060006104b7736b175474e89094c44da98b954eedeac495271d0f333088610f68565b6104d773a0b86991c6218b36c1d19d4a2e9eb0ce3606eb48333087610f68565b60005461050390736b175474e89094c44da98b954eedeac495271d0f906001600160a01b031687610c6b565b60005461052f9073a0b86991c6218b36c1d19d4a2e9eb0ce3606eb48906001600160a01b031686610c6b565b6040805160c081018252600254815260208101879052808201869052600060608201819052608082018190524260a08301525491517f219f5d1700000000000000000000000000000000000000000000000000000000815290916001600160a01b03169063219f5d17906105a790849060040161159d565b606060405180830381600087803b1580156105c157600080fd5b505af11580156105d5573d6000803e3d6000fd5b505050506040513d601f19601f820116820180604052508101906105f991906112d7565b60408051808201909152600981527f6c6971756964697479000000000000000000000000000000000000000000000060208201529296509094509250610648906001600160801b0386166110f3565b610672604051806040016040528060088152602001670616d6f756e7420360c41b815250846110f3565b61069c60405180604001604052806008815260200167616d6f756e74203160c01b815250836110f3565b509250925092565b6040805160808101825260025481523060208201526001600160801b0381830181905260608201526000805492517ffc6f786500000000000000000000000000000000000000000000000000000000815290928392916001600160a01b039091169063fc6f78659061071a908490600401611517565b6040805180830381600087803b15801561073357600080fd5b505af1158015610747573d6000803e3d6000fd5b505050506040513d601f19601f8201168201806040525081019061076b9190611383565b60408051808201909152600581527f6665652030000000000000000000000000000000000000000000000000000000602082015291945092506107ae90846110f3565b6107ed6040518060400160405280600581526020017f6665652031000000000000000000000000000000000000000000000000000000815250836110f3565b509091565b73a0b86991c6218b36c1d19d4a2e9eb0ce3606eb4881565b6000805460405163133f757160e31b815282916001600160a01b0316906399fbab889061083b9086906004016116d4565b6101806040518083038186803b15801561085457600080fd5b505afa158015610868573d6000803e3d6000fd5b505050506040513d601f19601f8201168201806040525081019061088c91906113a6565b50929b5050505050505050505050505b919050565b600160208190526000918252604090912080549181015460028201546003909201546001600160a01b03938416936001600160801b03909216928216911684565b6000546001600160a01b031681565b6040805160a08101825260025481526001600160801b0383166020820152600081830181905260608201819052426080830152805492517f0c49ccbe00000000000000000000000000000000000000000000000000000000815290928392916001600160a01b0390911690630c49ccbe9061097090849060040161155a565b6040805180830381600087803b15801561098957600080fd5b505af115801561099d573d6000803e3d6000fd5b505050506040513d601f19601f820116820180604052508101906109c19190611383565b6040805180820190915260088152670616d6f756e7420360c41b602082015291945092506109ef90846110f3565b610a1960405180604001604052806008815260200167616d6f756e74203160c01b815250836110f3565b50915091565b736b175474e89094c44da98b954eedeac495271d0f81565b6000805460405163133f757160e31b8152829182916001600160a01b03909116906399fbab8890610a6c9087906004016116d4565b6101806040518083038186803b158015610a8557600080fd5b505afa158015610a99573d6000803e3d6000fd5b505050506040513d601f19601f82011682018060405250810190610abd91906113a6565b5050505097505050509450945050506040518060800160405280866001600160a01b03168152602001826001600160801b03168152602001846001600160a01b03168152602001836001600160a01b03168152506001600086815260200190815260200160002060008201518160000160006101000a8154816001600160a01b0302191690836001600160a01b0316021790555060208201518160010160006101000a8154816001600160801b0302191690836001600160801b0316021790555060408201518160020160006101000a8154816001600160a01b0302191690836001600160a01b0316021790555060608201518160030160006101000a8154816001600160a01b0302191690836001600160a01b03160217905550905050610c1a6040518060400160405280600881526020017f546f6b656e206964000000000000000000000000000000000000000000000000815250856110f3565b610c626040518060400160405280600981526020017f4c69717569646974790000000000000000000000000000000000000000000000815250826001600160801b03166110f3565b50505060025550565b604080516001600160a01b038481166024830152604480830185905283518084039091018152606490920183526020820180516001600160e01b03167f095ea7b3000000000000000000000000000000000000000000000000000000001781529251825160009485949389169392918291908083835b60208310610d005780518252601f199092019160209182019101610ce1565b6001836020036101000a0380198251168184511680821785525050505050509050019150506000604051808303816000865af19150503d8060008114610d62576040519150601f19603f3d011682016040523d82523d6000602084013e610d67565b606091505b5091509150818015610d95575080511580610d955750808060200190516020811015610d9257600080fd5b50515b610de6576040805162461bcd60e51b815260206004820152600260248201527f5341000000000000000000000000000000000000000000000000000000000000604482015290519081900360640190fd5b5050505050565b604080516001600160a01b038481166024830152604480830185905283518084039091018152606490920183526020820180516001600160e01b03167fa9059cbb000000000000000000000000000000000000000000000000000000001781529251825160009485949389169392918291908083835b60208310610e825780518252601f199092019160209182019101610e63565b6001836020036101000a0380198251168184511680821785525050505050509050019150506000604051808303816000865af19150503d8060008114610ee4576040519150601f19603f3d011682016040523d82523d6000602084013e610ee9565b606091505b5091509150818015610f17575080511580610f175750808060200190516020811015610f1457600080fd5b50515b610de6576040805162461bcd60e51b815260206004820152600260248201527f5354000000000000000000000000000000000000000000000000000000000000604482015290519081900360640190fd5b604080516001600160a01b0385811660248301528481166044830152606480830185905283518084039091018152608490920183526020820180516001600160e01b03167f23b872dd00000000000000000000000000000000000000000000000000000000178152925182516000948594938a169392918291908083835b602083106110055780518252601f199092019160209182019101610fe6565b6001836020036101000a0380198251168184511680821785525050505050509050019150506000604051808303816000865af19150503d8060008114611067576040519150601f19603f3d011682016040523d82523d6000602084013e61106c565b606091505b509150915081801561109a57508051158061109a575080806020019051602081101561109757600080fd5b50515b6110eb576040805162461bcd60e51b815260206004820152600360248201527f5354460000000000000000000000000000000000000000000000000000000000604482015290519081900360640190fd5b505050505050565b6111ba82826040516024018080602001838152602001828103825284818151815260200191508051906020019080838360005b8381101561113e578181015183820152602001611126565b50505050905090810190601f16801561116b5780820380516001836020036101000a031916815260200191505b5060408051601f198184030181529190526020810180516001600160e01b03167fb60e72cc0000000000000000000000000000000000000000000000000000000017905293506111be92505050565b5050565b80516a636f6e736f6c652e6c6f67602083016000808483855afa5050505050565b805161089c8161170f565b8051600281900b811461089c57600080fd5b805161089c81611727565b805162ffffff8116811461089c57600080fd5b600080600080600060808688031215611231578081fd5b853561123c8161170f565b9450602086013561124c8161170f565b935060408601359250606086013567ffffffffffffffff8082111561126f578283fd5b818801915088601f830112611282578283fd5b813581811115611290578384fd5b8960208285010111156112a1578384fd5b9699959850939650602001949392505050565b6000602082840312156112c5578081fd5b81356112d081611727565b9392505050565b6000806000606084860312156112eb578283fd5b83516112f681611727565b602085015160409095015190969495509392505050565b60006020828403121561131e578081fd5b5035919050565b6000806000806080858703121561133a578384fd5b84519350602085015161134c81611727565b6040860151606090960151949790965092505050565b60008060408385031215611374578182fd5b50508035926020909101359150565b60008060408385031215611395578182fd5b505080516020909101519092909150565b6000806000806000806000806000806000806101808d8f0312156113c8578687fd5b8c516bffffffffffffffffffffffff811681146113e3578788fd5b9b506113f160208e016111df565b9a506113ff60408e016111df565b995061140d60608e016111df565b985061141b60808e01611207565b975061142960a08e016111ea565b965061143760c08e016111ea565b955061144560e08e016111fc565b94506101008d015193506101208d015192506114646101408e016111fc565b91506114736101608e016111fc565b90509295989b509295989b509295989b565b6001600160a01b03169052565b60020b9052565b62ffffff169052565b6001600160a01b0391909116815260200190565b6001600160a01b0394851681526001600160801b039390931660208401529083166040830152909116606082015260800190565b7fffffffff0000000000000000000000000000000000000000000000000000000091909116815260200190565b815181526020808301516001600160a01b0316908201526040808301516001600160801b0390811691830191909152606092830151169181019190915260800190565b600060a082019050825182526001600160801b03602084015116602083015260408301516040830152606083015160608301526080830151608083015292915050565b600060c082019050825182526020830151602083015260408301516040830152606083015160608301526080830151608083015260a083015160a083015292915050565b6000610160820190506115f5828451611485565b60208301516116076020840182611485565b50604083015161161a6040840182611499565b50606083015161162d6060840182611492565b5060808301516116406080840182611492565b5060a083015160a083015260c083015160c083015260e083015160e08301526101008084015181840152506101208084015161167e82850182611485565b505061014092830151919092015290565b6001600160801b0391909116815260200190565b6001600160801b039390931683526020830191909152604082015260600190565b62ffffff91909116815260200190565b90815260200190565b9384526001600160801b039290921660208401526040830152606082015260800190565b918252602082015260400190565b6001600160a01b038116811461172457600080fd5b50565b6001600160801b038116811461172457600080fdfea2646970667358221220a2e1096bf3d84d752ed0f793479befe6d5f240e74d75cd3b0f349a447efca27664736f6c63430007060033","opcodes":"PUSH1 0x80 PUSH1 0x40 MSTORE PUSH1 0x0 DUP1 SLOAD PUSH1 0x1 PUSH1 0x1 PUSH1 0xA0 SHL SUB NOT AND PUSH20 0xC36442B4A4522E871399CD717ABDD847AB11FE88 OR SWAP1 SSTORE CALLVALUE DUP1 ISZERO PUSH2 0x36 JUMPI PUSH1 0x0 DUP1 REVERT JUMPDEST POP PUSH2 0x1772 DUP1 PUSH2 0x46 PUSH1 0x0 CODECOPY PUSH1 0x0 RETURN INVALID PUSH1 0x80 PUSH1 0x40 MSTORE CALLVALUE DUP1 ISZERO PUSH2 0x10 JUMPI PUSH1 0x0 DUP1 REVERT JUMPDEST POP PUSH1 0x4 CALLDATASIZE LT PUSH2 0xD4 JUMPI PUSH1 0x0 CALLDATALOAD PUSH1 0xE0 SHR DUP1 PUSH4 0x89A30271 GT PUSH2 0x81 JUMPI DUP1 PUSH4 0xB44A2722 GT PUSH2 0x5B JUMPI DUP1 PUSH4 0xB44A2722 EQ PUSH2 0x1D4 JUMPI DUP1 PUSH4 0xDA406491 EQ PUSH2 0x1DC JUMPI DUP1 PUSH4 0xE0BAB4C4 EQ PUSH2 0x1EF JUMPI PUSH2 0xD4 JUMP JUMPDEST DUP1 PUSH4 0x89A30271 EQ PUSH2 0x17C JUMPI DUP1 PUSH4 0x951583C3 EQ PUSH2 0x191 JUMPI DUP1 PUSH4 0xB02C43D0 EQ PUSH2 0x1B1 JUMPI PUSH2 0xD4 JUMP JUMPDEST DUP1 PUSH4 0x306D9C61 GT PUSH2 0xB2 JUMPI DUP1 PUSH4 0x306D9C61 EQ PUSH2 0x12C JUMPI DUP1 PUSH4 0x558954C9 EQ PUSH2 0x144 JUMPI DUP1 PUSH4 0x686F2C90 EQ PUSH2 0x166 JUMPI PUSH2 0xD4 JUMP JUMPDEST DUP1 PUSH4 0x89FE6AA EQ PUSH2 0xD9 JUMPI DUP1 PUSH4 0x150B7A02 EQ PUSH2 0xF7 JUMPI DUP1 PUSH4 0x17D70F7C EQ PUSH2 0x117 JUMPI JUMPDEST PUSH1 0x0 DUP1 REVERT JUMPDEST PUSH2 0xE1 PUSH2 0x1F7 JUMP JUMPDEST PUSH1 0x40 MLOAD PUSH2 0xEE SWAP2 SWAP1 PUSH2 0x16C4 JUMP JUMPDEST PUSH1 0x40 MLOAD DUP1 SWAP2 SUB SWAP1 RETURN JUMPDEST PUSH2 0x10A PUSH2 0x105 CALLDATASIZE PUSH1 0x4 PUSH2 0x121A JUMP JUMPDEST PUSH2 0x1FC JUMP JUMPDEST PUSH1 0x40 MLOAD PUSH2 0xEE SWAP2 SWAP1 PUSH2 0x14EA JUMP JUMPDEST PUSH2 0x11F PUSH2 0x233 JUMP JUMPDEST PUSH1 0x40 MLOAD PUSH2 0xEE SWAP2 SWAP1 PUSH2 0x16D4 JUMP JUMPDEST PUSH2 0x134 PUSH2 0x239 JUMP JUMPDEST PUSH1 0x40 MLOAD PUSH2 0xEE SWAP5 SWAP4 SWAP3 SWAP2 SWAP1 PUSH2 0x16DD JUMP JUMPDEST PUSH2 0x157 PUSH2 0x152 CALLDATASIZE PUSH1 0x4 PUSH2 0x1362 JUMP JUMPDEST PUSH2 0x492 JUMP JUMPDEST PUSH1 0x40 MLOAD PUSH2 0xEE SWAP4 SWAP3 SWAP2 SWAP1 PUSH2 0x16A3 JUMP JUMPDEST PUSH2 0x16E PUSH2 0x6A4 JUMP JUMPDEST PUSH1 0x40 MLOAD PUSH2 0xEE SWAP3 SWAP2 SWAP1 PUSH2 0x1701 JUMP JUMPDEST PUSH2 0x184 PUSH2 0x7F2 JUMP JUMPDEST PUSH1 0x40 MLOAD PUSH2 0xEE SWAP2 SWAP1 PUSH2 0x14A2 JUMP JUMPDEST PUSH2 0x1A4 PUSH2 0x19F CALLDATASIZE PUSH1 0x4 PUSH2 0x130D JUMP JUMPDEST PUSH2 0x80A JUMP JUMPDEST PUSH1 0x40 MLOAD PUSH2 0xEE SWAP2 SWAP1 PUSH2 0x168F JUMP JUMPDEST PUSH2 0x1C4 PUSH2 0x1BF CALLDATASIZE PUSH1 0x4 PUSH2 0x130D JUMP JUMPDEST PUSH2 0x8A1 JUMP JUMPDEST PUSH1 0x40 MLOAD PUSH2 0xEE SWAP5 SWAP4 SWAP3 SWAP2 SWAP1 PUSH2 0x14B6 JUMP JUMPDEST PUSH2 0x184 PUSH2 0x8E2 JUMP JUMPDEST PUSH2 0x16E PUSH2 0x1EA CALLDATASIZE PUSH1 0x4 PUSH2 0x12B4 JUMP JUMPDEST PUSH2 0x8F1 JUMP JUMPDEST PUSH2 0x184 PUSH2 0xA1F JUMP JUMPDEST PUSH1 0x64 DUP2 JUMP JUMPDEST PUSH1 0x0 PUSH2 0x208 DUP7 DUP6 PUSH2 0xA37 JUMP JUMPDEST POP PUSH32 0x150B7A0200000000000000000000000000000000000000000000000000000000 SWAP6 SWAP5 POP POP POP POP POP JUMP JUMPDEST PUSH1 0x2 SLOAD DUP2 JUMP JUMPDEST PUSH1 0x0 DUP1 SLOAD DUP2 SWAP1 DUP2 SWAP1 DUP2 SWAP1 PUSH9 0x56BC75E2D63100000 SWAP1 PUSH4 0x5F5E100 SWAP1 PUSH2 0x27D SWAP1 PUSH20 0x6B175474E89094C44DA98B954EEDEAC495271D0F SWAP1 PUSH1 0x1 PUSH1 0x1 PUSH1 0xA0 SHL SUB AND DUP5 PUSH2 0xC6B JUMP JUMPDEST PUSH1 0x0 SLOAD PUSH2 0x2A9 SWAP1 PUSH20 0xA0B86991C6218B36C1D19D4A2E9EB0CE3606EB48 SWAP1 PUSH1 0x1 PUSH1 0x1 PUSH1 0xA0 SHL SUB AND DUP4 PUSH2 0xC6B JUMP JUMPDEST PUSH1 0x40 DUP1 MLOAD PUSH2 0x160 DUP2 ADD DUP3 MSTORE PUSH20 0x6B175474E89094C44DA98B954EEDEAC495271D0F DUP2 MSTORE PUSH20 0xA0B86991C6218B36C1D19D4A2E9EB0CE3606EB48 PUSH1 0x20 DUP3 ADD MSTORE PUSH1 0x64 DUP2 DUP4 ADD MSTORE PUSH3 0xD89E7 NOT PUSH1 0x60 DUP3 ADD MSTORE PUSH3 0xD89E8 PUSH1 0x80 DUP3 ADD MSTORE PUSH1 0xA0 DUP2 ADD DUP5 SWAP1 MSTORE PUSH1 0xC0 DUP2 ADD DUP4 SWAP1 MSTORE PUSH1 0x0 PUSH1 0xE0 DUP3 ADD DUP2 SWAP1 MSTORE PUSH2 0x100 DUP3 ADD DUP2 SWAP1 MSTORE ADDRESS PUSH2 0x120 DUP4 ADD MSTORE TIMESTAMP PUSH2 0x140 DUP4 ADD MSTORE SLOAD SWAP2 MLOAD PUSH32 0x8831645600000000000000000000000000000000000000000000000000000000 DUP2 MSTORE SWAP1 SWAP2 PUSH1 0x1 PUSH1 0x1 PUSH1 0xA0 SHL SUB AND SWAP1 PUSH4 0x88316456 SWAP1 PUSH2 0x371 SWAP1 DUP5 SWAP1 PUSH1 0x4 ADD PUSH2 0x15E1 JUMP JUMPDEST PUSH1 0x80 PUSH1 0x40 MLOAD DUP1 DUP4 SUB DUP2 PUSH1 0x0 DUP8 DUP1 EXTCODESIZE ISZERO DUP1 ISZERO PUSH2 0x38B JUMPI PUSH1 0x0 DUP1 REVERT JUMPDEST POP GAS CALL ISZERO DUP1 ISZERO PUSH2 0x39F JUMPI RETURNDATASIZE PUSH1 0x0 DUP1 RETURNDATACOPY RETURNDATASIZE PUSH1 0x0 REVERT JUMPDEST POP POP POP POP PUSH1 0x40 MLOAD RETURNDATASIZE PUSH1 0x1F NOT PUSH1 0x1F DUP3 ADD AND DUP3 ADD DUP1 PUSH1 0x40 MSTORE POP DUP2 ADD SWAP1 PUSH2 0x3C3 SWAP2 SWAP1 PUSH2 0x1325 JUMP JUMPDEST SWAP3 SWAP10 POP SWAP1 SWAP8 POP SWAP6 POP SWAP4 POP PUSH2 0x3D7 CALLER DUP9 PUSH2 0xA37 JUMP JUMPDEST DUP3 DUP6 LT ISZERO PUSH2 0x430 JUMPI PUSH1 0x0 DUP1 SLOAD PUSH2 0x40C SWAP2 PUSH20 0x6B175474E89094C44DA98B954EEDEAC495271D0F SWAP2 PUSH1 0x1 PUSH1 0x1 PUSH1 0xA0 SHL SUB AND SWAP1 PUSH2 0xC6B JUMP JUMPDEST DUP5 DUP4 SUB PUSH2 0x42E PUSH20 0x6B175474E89094C44DA98B954EEDEAC495271D0F CALLER DUP4 PUSH2 0xDED JUMP JUMPDEST POP JUMPDEST DUP2 DUP5 LT ISZERO PUSH2 0x489 JUMPI PUSH1 0x0 DUP1 SLOAD PUSH2 0x465 SWAP2 PUSH20 0xA0B86991C6218B36C1D19D4A2E9EB0CE3606EB48 SWAP2 PUSH1 0x1 PUSH1 0x1 PUSH1 0xA0 SHL SUB AND SWAP1 PUSH2 0xC6B JUMP JUMPDEST DUP4 DUP3 SUB PUSH2 0x487 PUSH20 0xA0B86991C6218B36C1D19D4A2E9EB0CE3606EB48 CALLER DUP4 PUSH2 0xDED JUMP JUMPDEST POP JUMPDEST POP POP POP SWAP1 SWAP2 SWAP3 SWAP4 JUMP JUMPDEST PUSH1 0x0 DUP1 PUSH1 0x0 PUSH2 0x4B7 PUSH20 0x6B175474E89094C44DA98B954EEDEAC495271D0F CALLER ADDRESS DUP9 PUSH2 0xF68 JUMP JUMPDEST PUSH2 0x4D7 PUSH20 0xA0B86991C6218B36C1D19D4A2E9EB0CE3606EB48 CALLER ADDRESS DUP8 PUSH2 0xF68 JUMP JUMPDEST PUSH1 0x0 SLOAD PUSH2 0x503 SWAP1 PUSH20 0x6B175474E89094C44DA98B954EEDEAC495271D0F SWAP1 PUSH1 0x1 PUSH1 0x1 PUSH1 0xA0 SHL SUB AND DUP8 PUSH2 0xC6B JUMP JUMPDEST PUSH1 0x0 SLOAD PUSH2 0x52F SWAP1 PUSH20 0xA0B86991C6218B36C1D19D4A2E9EB0CE3606EB48 SWAP1 PUSH1 0x1 PUSH1 0x1 PUSH1 0xA0 SHL SUB AND DUP7 PUSH2 0xC6B JUMP JUMPDEST PUSH1 0x40 DUP1 MLOAD PUSH1 0xC0 DUP2 ADD DUP3 MSTORE PUSH1 0x2 SLOAD DUP2 MSTORE PUSH1 0x20 DUP2 ADD DUP8 SWAP1 MSTORE DUP1 DUP3 ADD DUP7 SWAP1 MSTORE PUSH1 0x0 PUSH1 0x60 DUP3 ADD DUP2 SWAP1 MSTORE PUSH1 0x80 DUP3 ADD DUP2 SWAP1 MSTORE TIMESTAMP PUSH1 0xA0 DUP4 ADD MSTORE SLOAD SWAP2 MLOAD PUSH32 0x219F5D1700000000000000000000000000000000000000000000000000000000 DUP2 MSTORE SWAP1 SWAP2 PUSH1 0x1 PUSH1 0x1 PUSH1 0xA0 SHL SUB AND SWAP1 PUSH4 0x219F5D17 SWAP1 PUSH2 0x5A7 SWAP1 DUP5 SWAP1 PUSH1 0x4 ADD PUSH2 0x159D JUMP JUMPDEST PUSH1 0x60 PUSH1 0x40 MLOAD DUP1 DUP4 SUB DUP2 PUSH1 0x0 DUP8 DUP1 EXTCODESIZE ISZERO DUP1 ISZERO PUSH2 0x5C1 JUMPI PUSH1 0x0 DUP1 REVERT JUMPDEST POP GAS CALL ISZERO DUP1 ISZERO PUSH2 0x5D5 JUMPI RETURNDATASIZE PUSH1 0x0 DUP1 RETURNDATACOPY RETURNDATASIZE PUSH1 0x0 REVERT JUMPDEST POP POP POP POP PUSH1 0x40 MLOAD RETURNDATASIZE PUSH1 0x1F NOT PUSH1 0x1F DUP3 ADD AND DUP3 ADD DUP1 PUSH1 0x40 MSTORE POP DUP2 ADD SWAP1 PUSH2 0x5F9 SWAP2 SWAP1 PUSH2 0x12D7 JUMP JUMPDEST PUSH1 0x40 DUP1 MLOAD DUP1 DUP3 ADD SWAP1 SWAP2 MSTORE PUSH1 0x9 DUP2 MSTORE PUSH32 0x6C69717569646974790000000000000000000000000000000000000000000000 PUSH1 0x20 DUP3 ADD MSTORE SWAP3 SWAP7 POP SWAP1 SWAP5 POP SWAP3 POP PUSH2 0x648 SWAP1 PUSH1 0x1 PUSH1 0x1 PUSH1 0x80 SHL SUB DUP7 AND PUSH2 0x10F3 JUMP JUMPDEST PUSH2 0x672 PUSH1 0x40 MLOAD DUP1 PUSH1 0x40 ADD PUSH1 0x40 MSTORE DUP1 PUSH1 0x8 DUP2 MSTORE PUSH1 0x20 ADD PUSH8 0x616D6F756E74203 PUSH1 0xC4 SHL DUP2 MSTORE POP DUP5 PUSH2 0x10F3 JUMP JUMPDEST PUSH2 0x69C PUSH1 0x40 MLOAD DUP1 PUSH1 0x40 ADD PUSH1 0x40 MSTORE DUP1 PUSH1 0x8 DUP2 MSTORE PUSH1 0x20 ADD PUSH8 0x616D6F756E742031 PUSH1 0xC0 SHL DUP2 MSTORE POP DUP4 PUSH2 0x10F3 JUMP JUMPDEST POP SWAP3 POP SWAP3 POP SWAP3 JUMP JUMPDEST PUSH1 0x40 DUP1 MLOAD PUSH1 0x80 DUP2 ADD DUP3 MSTORE PUSH1 0x2 SLOAD DUP2 MSTORE ADDRESS PUSH1 0x20 DUP3 ADD MSTORE PUSH1 0x1 PUSH1 0x1 PUSH1 0x80 SHL SUB DUP2 DUP4 ADD DUP2 SWAP1 MSTORE PUSH1 0x60 DUP3 ADD MSTORE PUSH1 0x0 DUP1 SLOAD SWAP3 MLOAD PUSH32 0xFC6F786500000000000000000000000000000000000000000000000000000000 DUP2 MSTORE SWAP1 SWAP3 DUP4 SWAP3 SWAP2 PUSH1 0x1 PUSH1 0x1 PUSH1 0xA0 SHL SUB SWAP1 SWAP2 AND SWAP1 PUSH4 0xFC6F7865 SWAP1 PUSH2 0x71A SWAP1 DUP5 SWAP1 PUSH1 0x4 ADD PUSH2 0x1517 JUMP JUMPDEST PUSH1 0x40 DUP1 MLOAD DUP1 DUP4 SUB DUP2 PUSH1 0x0 DUP8 DUP1 EXTCODESIZE ISZERO DUP1 ISZERO PUSH2 0x733 JUMPI PUSH1 0x0 DUP1 REVERT JUMPDEST POP GAS CALL ISZERO DUP1 ISZERO PUSH2 0x747 JUMPI RETURNDATASIZE PUSH1 0x0 DUP1 RETURNDATACOPY RETURNDATASIZE PUSH1 0x0 REVERT JUMPDEST POP POP POP POP PUSH1 0x40 MLOAD RETURNDATASIZE PUSH1 0x1F NOT PUSH1 0x1F DUP3 ADD AND DUP3 ADD DUP1 PUSH1 0x40 MSTORE POP DUP2 ADD SWAP1 PUSH2 0x76B SWAP2 SWAP1 PUSH2 0x1383 JUMP JUMPDEST PUSH1 0x40 DUP1 MLOAD DUP1 DUP3 ADD SWAP1 SWAP2 MSTORE PUSH1 0x5 DUP2 MSTORE PUSH32 0x6665652030000000000000000000000000000000000000000000000000000000 PUSH1 0x20 DUP3 ADD MSTORE SWAP2 SWAP5 POP SWAP3 POP PUSH2 0x7AE SWAP1 DUP5 PUSH2 0x10F3 JUMP JUMPDEST PUSH2 0x7ED PUSH1 0x40 MLOAD DUP1 PUSH1 0x40 ADD PUSH1 0x40 MSTORE DUP1 PUSH1 0x5 DUP2 MSTORE PUSH1 0x20 ADD PUSH32 0x6665652031000000000000000000000000000000000000000000000000000000 DUP2 MSTORE POP DUP4 PUSH2 0x10F3 JUMP JUMPDEST POP SWAP1 SWAP2 JUMP JUMPDEST PUSH20 0xA0B86991C6218B36C1D19D4A2E9EB0CE3606EB48 DUP2 JUMP JUMPDEST PUSH1 0x0 DUP1 SLOAD PUSH1 0x40 MLOAD PUSH4 0x133F7571 PUSH1 0xE3 SHL DUP2 MSTORE DUP3 SWAP2 PUSH1 0x1 PUSH1 0x1 PUSH1 0xA0 SHL SUB AND SWAP1 PUSH4 0x99FBAB88 SWAP1 PUSH2 0x83B SWAP1 DUP7 SWAP1 PUSH1 0x4 ADD PUSH2 0x16D4 JUMP JUMPDEST PUSH2 0x180 PUSH1 0x40 MLOAD DUP1 DUP4 SUB DUP2 DUP7 DUP1 EXTCODESIZE ISZERO DUP1 ISZERO PUSH2 0x854 JUMPI PUSH1 0x0 DUP1 REVERT JUMPDEST POP GAS STATICCALL ISZERO DUP1 ISZERO PUSH2 0x868 JUMPI RETURNDATASIZE PUSH1 0x0 DUP1 RETURNDATACOPY RETURNDATASIZE PUSH1 0x0 REVERT JUMPDEST POP POP POP POP PUSH1 0x40 MLOAD RETURNDATASIZE PUSH1 0x1F NOT PUSH1 0x1F DUP3 ADD AND DUP3 ADD DUP1 PUSH1 0x40 MSTORE POP DUP2 ADD SWAP1 PUSH2 0x88C SWAP2 SWAP1 PUSH2 0x13A6 JUMP JUMPDEST POP SWAP3 SWAP12 POP POP POP POP POP POP POP POP POP POP POP POP JUMPDEST SWAP2 SWAP1 POP JUMP JUMPDEST PUSH1 0x1 PUSH1 0x20 DUP2 SWAP1 MSTORE PUSH1 0x0 SWAP2 DUP3 MSTORE PUSH1 0x40 SWAP1 SWAP2 KECCAK256 DUP1 SLOAD SWAP2 DUP2 ADD SLOAD PUSH1 0x2 DUP3 ADD SLOAD PUSH1 0x3 SWAP1 SWAP3 ADD SLOAD PUSH1 0x1 PUSH1 0x1 PUSH1 0xA0 SHL SUB SWAP4 DUP5 AND SWAP4 PUSH1 0x1 PUSH1 0x1 PUSH1 0x80 SHL SUB SWAP1 SWAP3 AND SWAP3 DUP3 AND SWAP2 AND DUP5 JUMP JUMPDEST PUSH1 0x0 SLOAD PUSH1 0x1 PUSH1 0x1 PUSH1 0xA0 SHL SUB AND DUP2 JUMP JUMPDEST PUSH1 0x40 DUP1 MLOAD PUSH1 0xA0 DUP2 ADD DUP3 MSTORE PUSH1 0x2 SLOAD DUP2 MSTORE PUSH1 0x1 PUSH1 0x1 PUSH1 0x80 SHL SUB DUP4 AND PUSH1 0x20 DUP3 ADD MSTORE PUSH1 0x0 DUP2 DUP4 ADD DUP2 SWAP1 MSTORE PUSH1 0x60 DUP3 ADD DUP2 SWAP1 MSTORE TIMESTAMP PUSH1 0x80 DUP4 ADD MSTORE DUP1 SLOAD SWAP3 MLOAD PUSH32 0xC49CCBE00000000000000000000000000000000000000000000000000000000 DUP2 MSTORE SWAP1 SWAP3 DUP4 SWAP3 SWAP2 PUSH1 0x1 PUSH1 0x1 PUSH1 0xA0 SHL SUB SWAP1 SWAP2 AND SWAP1 PUSH4 0xC49CCBE SWAP1 PUSH2 0x970 SWAP1 DUP5 SWAP1 PUSH1 0x4 ADD PUSH2 0x155A JUMP JUMPDEST PUSH1 0x40 DUP1 MLOAD DUP1 DUP4 SUB DUP2 PUSH1 0x0 DUP8 DUP1 EXTCODESIZE ISZERO DUP1 ISZERO PUSH2 0x989 JUMPI PUSH1 0x0 DUP1 REVERT JUMPDEST POP GAS CALL ISZERO DUP1 ISZERO PUSH2 0x99D JUMPI RETURNDATASIZE PUSH1 0x0 DUP1 RETURNDATACOPY RETURNDATASIZE PUSH1 0x0 REVERT JUMPDEST POP POP POP POP PUSH1 0x40 MLOAD RETURNDATASIZE PUSH1 0x1F NOT PUSH1 0x1F DUP3 ADD AND DUP3 ADD DUP1 PUSH1 0x40 MSTORE POP DUP2 ADD SWAP1 PUSH2 0x9C1 SWAP2 SWAP1 PUSH2 0x1383 JUMP JUMPDEST PUSH1 0x40 DUP1 MLOAD DUP1 DUP3 ADD SWAP1 SWAP2 MSTORE PUSH1 0x8 DUP2 MSTORE PUSH8 0x616D6F756E74203 PUSH1 0xC4 SHL PUSH1 0x20 DUP3 ADD MSTORE SWAP2 SWAP5 POP SWAP3 POP PUSH2 0x9EF SWAP1 DUP5 PUSH2 0x10F3 JUMP JUMPDEST PUSH2 0xA19 PUSH1 0x40 MLOAD DUP1 PUSH1 0x40 ADD PUSH1 0x40 MSTORE DUP1 PUSH1 0x8 DUP2 MSTORE PUSH1 0x20 ADD PUSH8 0x616D6F756E742031 PUSH1 0xC0 SHL DUP2 MSTORE POP DUP4 PUSH2 0x10F3 JUMP JUMPDEST POP SWAP2 POP SWAP2 JUMP JUMPDEST PUSH20 0x6B175474E89094C44DA98B954EEDEAC495271D0F DUP2 JUMP JUMPDEST PUSH1 0x0 DUP1 SLOAD PUSH1 0x40 MLOAD PUSH4 0x133F7571 PUSH1 0xE3 SHL DUP2 MSTORE DUP3 SWAP2 DUP3 SWAP2 PUSH1 0x1 PUSH1 0x1 PUSH1 0xA0 SHL SUB SWAP1 SWAP2 AND SWAP1 PUSH4 0x99FBAB88 SWAP1 PUSH2 0xA6C SWAP1 DUP8 SWAP1 PUSH1 0x4 ADD PUSH2 0x16D4 JUMP JUMPDEST PUSH2 0x180 PUSH1 0x40 MLOAD DUP1 DUP4 SUB DUP2 DUP7 DUP1 EXTCODESIZE ISZERO DUP1 ISZERO PUSH2 0xA85 JUMPI PUSH1 0x0 DUP1 REVERT JUMPDEST POP GAS STATICCALL ISZERO DUP1 ISZERO PUSH2 0xA99 JUMPI RETURNDATASIZE PUSH1 0x0 DUP1 RETURNDATACOPY RETURNDATASIZE PUSH1 0x0 REVERT JUMPDEST POP POP POP POP PUSH1 0x40 MLOAD RETURNDATASIZE PUSH1 0x1F NOT PUSH1 0x1F DUP3 ADD AND DUP3 ADD DUP1 PUSH1 0x40 MSTORE POP DUP2 ADD SWAP1 PUSH2 0xABD SWAP2 SWAP1 PUSH2 0x13A6 JUMP JUMPDEST POP POP POP POP SWAP8 POP POP POP POP SWAP5 POP SWAP5 POP POP POP PUSH1 0x40 MLOAD DUP1 PUSH1 0x80 ADD PUSH1 0x40 MSTORE DUP1 DUP7 PUSH1 0x1 PUSH1 0x1 PUSH1 0xA0 SHL SUB AND DUP2 MSTORE PUSH1 0x20 ADD DUP3 PUSH1 0x1 PUSH1 0x1 PUSH1 0x80 SHL SUB AND DUP2 MSTORE PUSH1 0x20 ADD DUP5 PUSH1 0x1 PUSH1 0x1 PUSH1 0xA0 SHL SUB AND DUP2 MSTORE PUSH1 0x20 ADD DUP4 PUSH1 0x1 PUSH1 0x1 PUSH1 0xA0 SHL SUB AND DUP2 MSTORE POP PUSH1 0x1 PUSH1 0x0 DUP7 DUP2 MSTORE PUSH1 0x20 ADD SWAP1 DUP2 MSTORE PUSH1 0x20 ADD PUSH1 0x0 KECCAK256 PUSH1 0x0 DUP3 ADD MLOAD DUP2 PUSH1 0x0 ADD PUSH1 0x0 PUSH2 0x100 EXP DUP2 SLOAD DUP2 PUSH1 0x1 PUSH1 0x1 PUSH1 0xA0 SHL SUB MUL NOT AND SWAP1 DUP4 PUSH1 0x1 PUSH1 0x1 PUSH1 0xA0 SHL SUB AND MUL OR SWAP1 SSTORE POP PUSH1 0x20 DUP3 ADD MLOAD DUP2 PUSH1 0x1 ADD PUSH1 0x0 PUSH2 0x100 EXP DUP2 SLOAD DUP2 PUSH1 0x1 PUSH1 0x1 PUSH1 0x80 SHL SUB MUL NOT AND SWAP1 DUP4 PUSH1 0x1 PUSH1 0x1 PUSH1 0x80 SHL SUB AND MUL OR SWAP1 SSTORE POP PUSH1 0x40 DUP3 ADD MLOAD DUP2 PUSH1 0x2 ADD PUSH1 0x0 PUSH2 0x100 EXP DUP2 SLOAD DUP2 PUSH1 0x1 PUSH1 0x1 PUSH1 0xA0 SHL SUB MUL NOT AND SWAP1 DUP4 PUSH1 0x1 PUSH1 0x1 PUSH1 0xA0 SHL SUB AND MUL OR SWAP1 SSTORE POP PUSH1 0x60 DUP3 ADD MLOAD DUP2 PUSH1 0x3 ADD PUSH1 0x0 PUSH2 0x100 EXP DUP2 SLOAD DUP2 PUSH1 0x1 PUSH1 0x1 PUSH1 0xA0 SHL SUB MUL NOT AND SWAP1 DUP4 PUSH1 0x1 PUSH1 0x1 PUSH1 0xA0 SHL SUB AND MUL OR SWAP1 SSTORE POP SWAP1 POP POP PUSH2 0xC1A PUSH1 0x40 MLOAD DUP1 PUSH1 0x40 ADD PUSH1 0x40 MSTORE DUP1 PUSH1 0x8 DUP2 MSTORE PUSH1 0x20 ADD PUSH32 0x546F6B656E206964000000000000000000000000000000000000000000000000 DUP2 MSTORE POP DUP6 PUSH2 0x10F3 JUMP JUMPDEST PUSH2 0xC62 PUSH1 0x40 MLOAD DUP1 PUSH1 0x40 ADD PUSH1 0x40 MSTORE DUP1 PUSH1 0x9 DUP2 MSTORE PUSH1 0x20 ADD PUSH32 0x4C69717569646974790000000000000000000000000000000000000000000000 DUP2 MSTORE POP DUP3 PUSH1 0x1 PUSH1 0x1 PUSH1 0x80 SHL SUB AND PUSH2 0x10F3 JUMP JUMPDEST POP POP POP PUSH1 0x2 SSTORE POP JUMP JUMPDEST PUSH1 0x40 DUP1 MLOAD PUSH1 0x1 PUSH1 0x1 PUSH1 0xA0 SHL SUB DUP5 DUP2 AND PUSH1 0x24 DUP4 ADD MSTORE PUSH1 0x44 DUP1 DUP4 ADD DUP6 SWAP1 MSTORE DUP4 MLOAD DUP1 DUP5 SUB SWAP1 SWAP2 ADD DUP2 MSTORE PUSH1 0x64 SWAP1 SWAP3 ADD DUP4 MSTORE PUSH1 0x20 DUP3 ADD DUP1 MLOAD PUSH1 0x1 PUSH1 0x1 PUSH1 0xE0 SHL SUB AND PUSH32 0x95EA7B300000000000000000000000000000000000000000000000000000000 OR DUP2 MSTORE SWAP3 MLOAD DUP3 MLOAD PUSH1 0x0 SWAP5 DUP6 SWAP5 SWAP4 DUP10 AND SWAP4 SWAP3 SWAP2 DUP3 SWAP2 SWAP1 DUP1 DUP4 DUP4 JUMPDEST PUSH1 0x20 DUP4 LT PUSH2 0xD00 JUMPI DUP1 MLOAD DUP3 MSTORE PUSH1 0x1F NOT SWAP1 SWAP3 ADD SWAP2 PUSH1 0x20 SWAP2 DUP3 ADD SWAP2 ADD PUSH2 0xCE1 JUMP JUMPDEST PUSH1 0x1 DUP4 PUSH1 0x20 SUB PUSH2 0x100 EXP SUB DUP1 NOT DUP3 MLOAD AND DUP2 DUP5 MLOAD AND DUP1 DUP3 OR DUP6 MSTORE POP POP POP POP POP POP SWAP1 POP ADD SWAP2 POP POP PUSH1 0x0 PUSH1 0x40 MLOAD DUP1 DUP4 SUB DUP2 PUSH1 0x0 DUP7 GAS CALL SWAP2 POP POP RETURNDATASIZE DUP1 PUSH1 0x0 DUP2 EQ PUSH2 0xD62 JUMPI PUSH1 0x40 MLOAD SWAP2 POP PUSH1 0x1F NOT PUSH1 0x3F RETURNDATASIZE ADD AND DUP3 ADD PUSH1 0x40 MSTORE RETURNDATASIZE DUP3 MSTORE RETURNDATASIZE PUSH1 0x0 PUSH1 0x20 DUP5 ADD RETURNDATACOPY PUSH2 0xD67 JUMP JUMPDEST PUSH1 0x60 SWAP2 POP JUMPDEST POP SWAP2 POP SWAP2 POP DUP2 DUP1 ISZERO PUSH2 0xD95 JUMPI POP DUP1 MLOAD ISZERO DUP1 PUSH2 0xD95 JUMPI POP DUP1 DUP1 PUSH1 0x20 ADD SWAP1 MLOAD PUSH1 0x20 DUP2 LT ISZERO PUSH2 0xD92 JUMPI PUSH1 0x0 DUP1 REVERT JUMPDEST POP MLOAD JUMPDEST PUSH2 0xDE6 JUMPI PUSH1 0x40 DUP1 MLOAD PUSH3 0x461BCD PUSH1 0xE5 SHL DUP2 MSTORE PUSH1 0x20 PUSH1 0x4 DUP3 ADD MSTORE PUSH1 0x2 PUSH1 0x24 DUP3 ADD MSTORE PUSH32 0x5341000000000000000000000000000000000000000000000000000000000000 PUSH1 0x44 DUP3 ADD MSTORE SWAP1 MLOAD SWAP1 DUP2 SWAP1 SUB PUSH1 0x64 ADD SWAP1 REVERT JUMPDEST POP POP POP POP POP JUMP JUMPDEST PUSH1 0x40 DUP1 MLOAD PUSH1 0x1 PUSH1 0x1 PUSH1 0xA0 SHL SUB DUP5 DUP2 AND PUSH1 0x24 DUP4 ADD MSTORE PUSH1 0x44 DUP1 DUP4 ADD DUP6 SWAP1 MSTORE DUP4 MLOAD DUP1 DUP5 SUB SWAP1 SWAP2 ADD DUP2 MSTORE PUSH1 0x64 SWAP1 SWAP3 ADD DUP4 MSTORE PUSH1 0x20 DUP3 ADD DUP1 MLOAD PUSH1 0x1 PUSH1 0x1 PUSH1 0xE0 SHL SUB AND PUSH32 0xA9059CBB00000000000000000000000000000000000000000000000000000000 OR DUP2 MSTORE SWAP3 MLOAD DUP3 MLOAD PUSH1 0x0 SWAP5 DUP6 SWAP5 SWAP4 DUP10 AND SWAP4 SWAP3 SWAP2 DUP3 SWAP2 SWAP1 DUP1 DUP4 DUP4 JUMPDEST PUSH1 0x20 DUP4 LT PUSH2 0xE82 JUMPI DUP1 MLOAD DUP3 MSTORE PUSH1 0x1F NOT SWAP1 SWAP3 ADD SWAP2 PUSH1 0x20 SWAP2 DUP3 ADD SWAP2 ADD PUSH2 0xE63 JUMP JUMPDEST PUSH1 0x1 DUP4 PUSH1 0x20 SUB PUSH2 0x100 EXP SUB DUP1 NOT DUP3 MLOAD AND DUP2 DUP5 MLOAD AND DUP1 DUP3 OR DUP6 MSTORE POP POP POP POP POP POP SWAP1 POP ADD SWAP2 POP POP PUSH1 0x0 PUSH1 0x40 MLOAD DUP1 DUP4 SUB DUP2 PUSH1 0x0 DUP7 GAS CALL SWAP2 POP POP RETURNDATASIZE DUP1 PUSH1 0x0 DUP2 EQ PUSH2 0xEE4 JUMPI PUSH1 0x40 MLOAD SWAP2 POP PUSH1 0x1F NOT PUSH1 0x3F RETURNDATASIZE ADD AND DUP3 ADD PUSH1 0x40 MSTORE RETURNDATASIZE DUP3 MSTORE RETURNDATASIZE PUSH1 0x0 PUSH1 0x20 DUP5 ADD RETURNDATACOPY PUSH2 0xEE9 JUMP JUMPDEST PUSH1 0x60 SWAP2 POP JUMPDEST POP SWAP2 POP SWAP2 POP DUP2 DUP1 ISZERO PUSH2 0xF17 JUMPI POP DUP1 MLOAD ISZERO DUP1 PUSH2 0xF17 JUMPI POP DUP1 DUP1 PUSH1 0x20 ADD SWAP1 MLOAD PUSH1 0x20 DUP2 LT ISZERO PUSH2 0xF14 JUMPI PUSH1 0x0 DUP1 REVERT JUMPDEST POP MLOAD JUMPDEST PUSH2 0xDE6 JUMPI PUSH1 0x40 DUP1 MLOAD PUSH3 0x461BCD PUSH1 0xE5 SHL DUP2 MSTORE PUSH1 0x20 PUSH1 0x4 DUP3 ADD MSTORE PUSH1 0x2 PUSH1 0x24 DUP3 ADD MSTORE PUSH32 0x5354000000000000000000000000000000000000000000000000000000000000 PUSH1 0x44 DUP3 ADD MSTORE SWAP1 MLOAD SWAP1 DUP2 SWAP1 SUB PUSH1 0x64 ADD SWAP1 REVERT JUMPDEST PUSH1 0x40 DUP1 MLOAD PUSH1 0x1 PUSH1 0x1 PUSH1 0xA0 SHL SUB DUP6 DUP2 AND PUSH1 0x24 DUP4 ADD MSTORE DUP5 DUP2 AND PUSH1 0x44 DUP4 ADD MSTORE PUSH1 0x64 DUP1 DUP4 ADD DUP6 SWAP1 MSTORE DUP4 MLOAD DUP1 DUP5 SUB SWAP1 SWAP2 ADD DUP2 MSTORE PUSH1 0x84 SWAP1 SWAP3 ADD DUP4 MSTORE PUSH1 0x20 DUP3 ADD DUP1 MLOAD PUSH1 0x1 PUSH1 0x1 PUSH1 0xE0 SHL SUB AND PUSH32 0x23B872DD00000000000000000000000000000000000000000000000000000000 OR DUP2 MSTORE SWAP3 MLOAD DUP3 MLOAD PUSH1 0x0 SWAP5 DUP6 SWAP5 SWAP4 DUP11 AND SWAP4 SWAP3 SWAP2 DUP3 SWAP2 SWAP1 DUP1 DUP4 DUP4 JUMPDEST PUSH1 0x20 DUP4 LT PUSH2 0x1005 JUMPI DUP1 MLOAD DUP3 MSTORE PUSH1 0x1F NOT SWAP1 SWAP3 ADD SWAP2 PUSH1 0x20 SWAP2 DUP3 ADD SWAP2 ADD PUSH2 0xFE6 JUMP JUMPDEST PUSH1 0x1 DUP4 PUSH1 0x20 SUB PUSH2 0x100 EXP SUB DUP1 NOT DUP3 MLOAD AND DUP2 DUP5 MLOAD AND DUP1 DUP3 OR DUP6 MSTORE POP POP POP POP POP POP SWAP1 POP ADD SWAP2 POP POP PUSH1 0x0 PUSH1 0x40 MLOAD DUP1 DUP4 SUB DUP2 PUSH1 0x0 DUP7 GAS CALL SWAP2 POP POP RETURNDATASIZE DUP1 PUSH1 0x0 DUP2 EQ PUSH2 0x1067 JUMPI PUSH1 0x40 MLOAD SWAP2 POP PUSH1 0x1F NOT PUSH1 0x3F RETURNDATASIZE ADD AND DUP3 ADD PUSH1 0x40 MSTORE RETURNDATASIZE DUP3 MSTORE RETURNDATASIZE PUSH1 0x0 PUSH1 0x20 DUP5 ADD RETURNDATACOPY PUSH2 0x106C JUMP JUMPDEST PUSH1 0x60 SWAP2 POP JUMPDEST POP SWAP2 POP SWAP2 POP DUP2 DUP1 ISZERO PUSH2 0x109A JUMPI POP DUP1 MLOAD ISZERO DUP1 PUSH2 0x109A JUMPI POP DUP1 DUP1 PUSH1 0x20 ADD SWAP1 MLOAD PUSH1 0x20 DUP2 LT ISZERO PUSH2 0x1097 JUMPI PUSH1 0x0 DUP1 REVERT JUMPDEST POP MLOAD JUMPDEST PUSH2 0x10EB JUMPI PUSH1 0x40 DUP1 MLOAD PUSH3 0x461BCD PUSH1 0xE5 SHL DUP2 MSTORE PUSH1 0x20 PUSH1 0x4 DUP3 ADD MSTORE PUSH1 0x3 PUSH1 0x24 DUP3 ADD MSTORE PUSH32 0x5354460000000000000000000000000000000000000000000000000000000000 PUSH1 0x44 DUP3 ADD MSTORE SWAP1 MLOAD SWAP1 DUP2 SWAP1 SUB PUSH1 0x64 ADD SWAP1 REVERT JUMPDEST POP POP POP POP POP POP JUMP JUMPDEST PUSH2 0x11BA DUP3 DUP3 PUSH1 0x40 MLOAD PUSH1 0x24 ADD DUP1 DUP1 PUSH1 0x20 ADD DUP4 DUP2 MSTORE PUSH1 0x20 ADD DUP3 DUP2 SUB DUP3 MSTORE DUP5 DUP2 DUP2 MLOAD DUP2 MSTORE PUSH1 0x20 ADD SWAP2 POP DUP1 MLOAD SWAP1 PUSH1 0x20 ADD SWAP1 DUP1 DUP4 DUP4 PUSH1 0x0 JUMPDEST DUP4 DUP2 LT ISZERO PUSH2 0x113E JUMPI DUP2 DUP2 ADD MLOAD DUP4 DUP3 ADD MSTORE PUSH1 0x20 ADD PUSH2 0x1126 JUMP JUMPDEST POP POP POP POP SWAP1 POP SWAP1 DUP2 ADD SWAP1 PUSH1 0x1F AND DUP1 ISZERO PUSH2 0x116B JUMPI DUP1 DUP3 SUB DUP1 MLOAD PUSH1 0x1 DUP4 PUSH1 0x20 SUB PUSH2 0x100 EXP SUB NOT AND DUP2 MSTORE PUSH1 0x20 ADD SWAP2 POP JUMPDEST POP PUSH1 0x40 DUP1 MLOAD PUSH1 0x1F NOT DUP2 DUP5 SUB ADD DUP2 MSTORE SWAP2 SWAP1 MSTORE PUSH1 0x20 DUP2 ADD DUP1 MLOAD PUSH1 0x1 PUSH1 0x1 PUSH1 0xE0 SHL SUB AND PUSH32 0xB60E72CC00000000000000000000000000000000000000000000000000000000 OR SWAP1 MSTORE SWAP4 POP PUSH2 0x11BE SWAP3 POP POP POP JUMP JUMPDEST POP POP JUMP JUMPDEST DUP1 MLOAD PUSH11 0x636F6E736F6C652E6C6F67 PUSH1 0x20 DUP4 ADD PUSH1 0x0 DUP1 DUP5 DUP4 DUP6 GAS STATICCALL POP POP POP POP POP JUMP JUMPDEST DUP1 MLOAD PUSH2 0x89C DUP2 PUSH2 0x170F JUMP JUMPDEST DUP1 MLOAD PUSH1 0x2 DUP2 SWAP1 SIGNEXTEND DUP2 EQ PUSH2 0x89C JUMPI PUSH1 0x0 DUP1 REVERT JUMPDEST DUP1 MLOAD PUSH2 0x89C DUP2 PUSH2 0x1727 JUMP JUMPDEST DUP1 MLOAD PUSH3 0xFFFFFF DUP2 AND DUP2 EQ PUSH2 0x89C JUMPI PUSH1 0x0 DUP1 REVERT JUMPDEST PUSH1 0x0 DUP1 PUSH1 0x0 DUP1 PUSH1 0x0 PUSH1 0x80 DUP7 DUP9 SUB SLT ISZERO PUSH2 0x1231 JUMPI DUP1 DUP2 REVERT JUMPDEST DUP6 CALLDATALOAD PUSH2 0x123C DUP2 PUSH2 0x170F JUMP JUMPDEST SWAP5 POP PUSH1 0x20 DUP7 ADD CALLDATALOAD PUSH2 0x124C DUP2 PUSH2 0x170F JUMP JUMPDEST SWAP4 POP PUSH1 0x40 DUP7 ADD CALLDATALOAD SWAP3 POP PUSH1 0x60 DUP7 ADD CALLDATALOAD PUSH8 0xFFFFFFFFFFFFFFFF DUP1 DUP3 GT ISZERO PUSH2 0x126F JUMPI DUP3 DUP4 REVERT JUMPDEST DUP2 DUP9 ADD SWAP2 POP DUP9 PUSH1 0x1F DUP4 ADD SLT PUSH2 0x1282 JUMPI DUP3 DUP4 REVERT JUMPDEST DUP2 CALLDATALOAD DUP2 DUP2 GT ISZERO PUSH2 0x1290 JUMPI DUP4 DUP5 REVERT JUMPDEST DUP10 PUSH1 0x20 DUP3 DUP6 ADD ADD GT ISZERO PUSH2 0x12A1 JUMPI DUP4 DUP5 REVERT JUMPDEST SWAP7 SWAP10 SWAP6 SWAP9 POP SWAP4 SWAP7 POP PUSH1 0x20 ADD SWAP5 SWAP4 SWAP3 POP POP POP JUMP JUMPDEST PUSH1 0x0 PUSH1 0x20 DUP3 DUP5 SUB SLT ISZERO PUSH2 0x12C5 JUMPI DUP1 DUP2 REVERT JUMPDEST DUP2 CALLDATALOAD PUSH2 0x12D0 DUP2 PUSH2 0x1727 JUMP JUMPDEST SWAP4 SWAP3 POP POP POP JUMP JUMPDEST PUSH1 0x0 DUP1 PUSH1 0x0 PUSH1 0x60 DUP5 DUP7 SUB SLT ISZERO PUSH2 0x12EB JUMPI DUP3 DUP4 REVERT JUMPDEST DUP4 MLOAD PUSH2 0x12F6 DUP2 PUSH2 0x1727 JUMP JUMPDEST PUSH1 0x20 DUP6 ADD MLOAD PUSH1 0x40 SWAP1 SWAP6 ADD MLOAD SWAP1 SWAP7 SWAP5 SWAP6 POP SWAP4 SWAP3 POP POP POP JUMP JUMPDEST PUSH1 0x0 PUSH1 0x20 DUP3 DUP5 SUB SLT ISZERO PUSH2 0x131E JUMPI DUP1 DUP2 REVERT JUMPDEST POP CALLDATALOAD SWAP2 SWAP1 POP JUMP JUMPDEST PUSH1 0x0 DUP1 PUSH1 0x0 DUP1 PUSH1 0x80 DUP6 DUP8 SUB SLT ISZERO PUSH2 0x133A JUMPI DUP4 DUP5 REVERT JUMPDEST DUP5 MLOAD SWAP4 POP PUSH1 0x20 DUP6 ADD MLOAD PUSH2 0x134C DUP2 PUSH2 0x1727 JUMP JUMPDEST PUSH1 0x40 DUP7 ADD MLOAD PUSH1 0x60 SWAP1 SWAP7 ADD MLOAD SWAP5 SWAP8 SWAP1 SWAP7 POP SWAP3 POP POP POP JUMP JUMPDEST PUSH1 0x0 DUP1 PUSH1 0x40 DUP4 DUP6 SUB SLT ISZERO PUSH2 0x1374 JUMPI DUP2 DUP3 REVERT JUMPDEST POP POP DUP1 CALLDATALOAD SWAP3 PUSH1 0x20 SWAP1 SWAP2 ADD CALLDATALOAD SWAP2 POP JUMP JUMPDEST PUSH1 0x0 DUP1 PUSH1 0x40 DUP4 DUP6 SUB SLT ISZERO PUSH2 0x1395 JUMPI DUP2 DUP3 REVERT JUMPDEST POP POP DUP1 MLOAD PUSH1 0x20 SWAP1 SWAP2 ADD MLOAD SWAP1 SWAP3 SWAP1 SWAP2 POP JUMP JUMPDEST PUSH1 0x0 DUP1 PUSH1 0x0 DUP1 PUSH1 0x0 DUP1 PUSH1 0x0 DUP1 PUSH1 0x0 DUP1 PUSH1 0x0 DUP1 PUSH2 0x180 DUP14 DUP16 SUB SLT ISZERO PUSH2 0x13C8 JUMPI DUP7 DUP8 REVERT JUMPDEST DUP13 MLOAD PUSH12 0xFFFFFFFFFFFFFFFFFFFFFFFF DUP2 AND DUP2 EQ PUSH2 0x13E3 JUMPI DUP8 DUP9 REVERT JUMPDEST SWAP12 POP PUSH2 0x13F1 PUSH1 0x20 DUP15 ADD PUSH2 0x11DF JUMP JUMPDEST SWAP11 POP PUSH2 0x13FF PUSH1 0x40 DUP15 ADD PUSH2 0x11DF JUMP JUMPDEST SWAP10 POP PUSH2 0x140D PUSH1 0x60 DUP15 ADD PUSH2 0x11DF JUMP JUMPDEST SWAP9 POP PUSH2 0x141B PUSH1 0x80 DUP15 ADD PUSH2 0x1207 JUMP JUMPDEST SWAP8 POP PUSH2 0x1429 PUSH1 0xA0 DUP15 ADD PUSH2 0x11EA JUMP JUMPDEST SWAP7 POP PUSH2 0x1437 PUSH1 0xC0 DUP15 ADD PUSH2 0x11EA JUMP JUMPDEST SWAP6 POP PUSH2 0x1445 PUSH1 0xE0 DUP15 ADD PUSH2 0x11FC JUMP JUMPDEST SWAP5 POP PUSH2 0x100 DUP14 ADD MLOAD SWAP4 POP PUSH2 0x120 DUP14 ADD MLOAD SWAP3 POP PUSH2 0x1464 PUSH2 0x140 DUP15 ADD PUSH2 0x11FC JUMP JUMPDEST SWAP2 POP PUSH2 0x1473 PUSH2 0x160 DUP15 ADD PUSH2 0x11FC JUMP JUMPDEST SWAP1 POP SWAP3 SWAP6 SWAP9 SWAP12 POP SWAP3 SWAP6 SWAP9 SWAP12 POP SWAP3 SWAP6 SWAP9 SWAP12 JUMP JUMPDEST PUSH1 0x1 PUSH1 0x1 PUSH1 0xA0 SHL SUB AND SWAP1 MSTORE JUMP JUMPDEST PUSH1 0x2 SIGNEXTEND SWAP1 MSTORE JUMP JUMPDEST PUSH3 0xFFFFFF AND SWAP1 MSTORE JUMP JUMPDEST PUSH1 0x1 PUSH1 0x1 PUSH1 0xA0 SHL SUB SWAP2 SWAP1 SWAP2 AND DUP2 MSTORE PUSH1 0x20 ADD SWAP1 JUMP JUMPDEST PUSH1 0x1 PUSH1 0x1 PUSH1 0xA0 SHL SUB SWAP5 DUP6 AND DUP2 MSTORE PUSH1 0x1 PUSH1 0x1 PUSH1 0x80 SHL SUB SWAP4 SWAP1 SWAP4 AND PUSH1 0x20 DUP5 ADD MSTORE SWAP1 DUP4 AND PUSH1 0x40 DUP4 ADD MSTORE SWAP1 SWAP2 AND PUSH1 0x60 DUP3 ADD MSTORE PUSH1 0x80 ADD SWAP1 JUMP JUMPDEST PUSH32 0xFFFFFFFF00000000000000000000000000000000000000000000000000000000 SWAP2 SWAP1 SWAP2 AND DUP2 MSTORE PUSH1 0x20 ADD SWAP1 JUMP JUMPDEST DUP2 MLOAD DUP2 MSTORE PUSH1 0x20 DUP1 DUP4 ADD MLOAD PUSH1 0x1 PUSH1 0x1 PUSH1 0xA0 SHL SUB AND SWAP1 DUP3 ADD MSTORE PUSH1 0x40 DUP1 DUP4 ADD MLOAD PUSH1 0x1 PUSH1 0x1 PUSH1 0x80 SHL SUB SWAP1 DUP2 AND SWAP2 DUP4 ADD SWAP2 SWAP1 SWAP2 MSTORE PUSH1 0x60 SWAP3 DUP4 ADD MLOAD AND SWAP2 DUP2 ADD SWAP2 SWAP1 SWAP2 MSTORE PUSH1 0x80 ADD SWAP1 JUMP JUMPDEST PUSH1 0x0 PUSH1 0xA0 DUP3 ADD SWAP1 POP DUP3 MLOAD DUP3 MSTORE PUSH1 0x1 PUSH1 0x1 PUSH1 0x80 SHL SUB PUSH1 0x20 DUP5 ADD MLOAD AND PUSH1 0x20 DUP4 ADD MSTORE PUSH1 0x40 DUP4 ADD MLOAD PUSH1 0x40 DUP4 ADD MSTORE PUSH1 0x60 DUP4 ADD MLOAD PUSH1 0x60 DUP4 ADD MSTORE PUSH1 0x80 DUP4 ADD MLOAD PUSH1 0x80 DUP4 ADD MSTORE SWAP3 SWAP2 POP POP JUMP JUMPDEST PUSH1 0x0 PUSH1 0xC0 DUP3 ADD SWAP1 POP DUP3 MLOAD DUP3 MSTORE PUSH1 0x20 DUP4 ADD MLOAD PUSH1 0x20 DUP4 ADD MSTORE PUSH1 0x40 DUP4 ADD MLOAD PUSH1 0x40 DUP4 ADD MSTORE PUSH1 0x60 DUP4 ADD MLOAD PUSH1 0x60 DUP4 ADD MSTORE PUSH1 0x80 DUP4 ADD MLOAD PUSH1 0x80 DUP4 ADD MSTORE PUSH1 0xA0 DUP4 ADD MLOAD PUSH1 0xA0 DUP4 ADD MSTORE SWAP3 SWAP2 POP POP JUMP JUMPDEST PUSH1 0x0 PUSH2 0x160 DUP3 ADD SWAP1 POP PUSH2 0x15F5 DUP3 DUP5 MLOAD PUSH2 0x1485 JUMP JUMPDEST PUSH1 0x20 DUP4 ADD MLOAD PUSH2 0x1607 PUSH1 0x20 DUP5 ADD DUP3 PUSH2 0x1485 JUMP JUMPDEST POP PUSH1 0x40 DUP4 ADD MLOAD PUSH2 0x161A PUSH1 0x40 DUP5 ADD DUP3 PUSH2 0x1499 JUMP JUMPDEST POP PUSH1 0x60 DUP4 ADD MLOAD PUSH2 0x162D PUSH1 0x60 DUP5 ADD DUP3 PUSH2 0x1492 JUMP JUMPDEST POP PUSH1 0x80 DUP4 ADD MLOAD PUSH2 0x1640 PUSH1 0x80 DUP5 ADD DUP3 PUSH2 0x1492 JUMP JUMPDEST POP PUSH1 0xA0 DUP4 ADD MLOAD PUSH1 0xA0 DUP4 ADD MSTORE PUSH1 0xC0 DUP4 ADD MLOAD PUSH1 0xC0 DUP4 ADD MSTORE PUSH1 0xE0 DUP4 ADD MLOAD PUSH1 0xE0 DUP4 ADD MSTORE PUSH2 0x100 DUP1 DUP5 ADD MLOAD DUP2 DUP5 ADD MSTORE POP PUSH2 0x120 DUP1 DUP5 ADD MLOAD PUSH2 0x167E DUP3 DUP6 ADD DUP3 PUSH2 0x1485 JUMP JUMPDEST POP POP PUSH2 0x140 SWAP3 DUP4 ADD MLOAD SWAP2 SWAP1 SWAP3 ADD MSTORE SWAP1 JUMP JUMPDEST PUSH1 0x1 PUSH1 0x1 PUSH1 0x80 SHL SUB SWAP2 SWAP1 SWAP2 AND DUP2 MSTORE PUSH1 0x20 ADD SWAP1 JUMP JUMPDEST PUSH1 0x1 PUSH1 0x1 PUSH1 0x80 SHL SUB SWAP4 SWAP1 SWAP4 AND DUP4 MSTORE PUSH1 0x20 DUP4 ADD SWAP2 SWAP1 SWAP2 MSTORE PUSH1 0x40 DUP3 ADD MSTORE PUSH1 0x60 ADD SWAP1 JUMP JUMPDEST PUSH3 0xFFFFFF SWAP2 SWAP1 SWAP2 AND DUP2 MSTORE PUSH1 0x20 ADD SWAP1 JUMP JUMPDEST SWAP1 DUP2 MSTORE PUSH1 0x20 ADD SWAP1 JUMP JUMPDEST SWAP4 DUP5 MSTORE PUSH1 0x1 PUSH1 0x1 PUSH1 0x80 SHL SUB SWAP3 SWAP1 SWAP3 AND PUSH1 0x20 DUP5 ADD MSTORE PUSH1 0x40 DUP4 ADD MSTORE PUSH1 0x60 DUP3 ADD MSTORE PUSH1 0x80 ADD SWAP1 JUMP JUMPDEST SWAP2 DUP3 MSTORE PUSH1 0x20 DUP3 ADD MSTORE PUSH1 0x40 ADD SWAP1 JUMP JUMPDEST PUSH1 0x1 PUSH1 0x1 PUSH1 0xA0 SHL SUB DUP2 AND DUP2 EQ PUSH2 0x1724 JUMPI PUSH1 0x0 DUP1 REVERT JUMPDEST POP JUMP JUMPDEST PUSH1 0x1 PUSH1 0x1 PUSH1 0x80 SHL SUB DUP2 AND DUP2 EQ PUSH2 0x1724 JUMPI PUSH1 0x0 DUP1 REVERT INVALID LOG2 PUSH5 0x6970667358 0x22 SLT KECCAK256 LOG2 0xE1 MULMOD PUSH12 0xF3D84D752ED0F793479BEFE6 0xD5 CALLCODE BLOCKHASH 0xE7 0x4D PUSH22 0xCD3B0F349A447EFCA27664736F6C6343000706003300 "},"methodIdentifiers":{"DAI()":"e0bab4c4","USDC()":"89a30271","collectAllFees()":"686f2c90","decreaseLiquidity(uint128)":"da406491","deposits(uint256)":"b02c43d0","getLiquidity(uint256)":"951583c3","increaseLiquidityCurrentRange(uint256,uint256)":"558954c9","mintNewPosition()":"306d9c61","nonfungiblePositionManager()":"b44a2722","onERC721Received(address,address,uint256,bytes)":"150b7a02","poolFee()":"089fe6aa","tokenId()":"17d70f7c"}}}}}