{
  "_format": "hh-sol-artifact-1",
  "contractName": "SingleSwapToken",
  "sourceName": "contracts/SwapToken.sol",
  "abi": [
    {
      "inputs": [],
      "name": "USDC",
      "outputs": [
        {
          "internalType": "address",
          "name": "",
          "type": "address"
        }
      ],
      "stateMutability": "view",
      "type": "function"
    },
    {
      "inputs": [
        {
          "internalType": "uint256",
          "name": "amountIn",
          "type": "uint256"
        }
      ],
      "name": "swapExactInputSingle",
      "outputs": [
        {
          "internalType": "uint256",
          "name": "amountOut",
          "type": "uint256"
        }
      ],
      "stateMutability": "nonpayable",
      "type": "function"
    },
    {
      "inputs": [
        {
          "internalType": "address",
          "name": "token1",
          "type": "address"
        },
        {
          "internalType": "address",
          "name": "token2",
          "type": "address"
        },
        {
          "internalType": "uint256",
          "name": "amountOut",
          "type": "uint256"
        },
        {
          "internalType": "uint256",
          "name": "amountInMaximum",
          "type": "uint256"
        }
      ],
      "name": "swapExactOutputSingle",
      "outputs": [
        {
          "internalType": "uint256",
          "name": "amountIn",
          "type": "uint256"
        }
      ],
      "stateMutability": "nonpayable",
      "type": "function"
    },
    {
      "inputs": [],
      "name": "swapRouter",
      "outputs": [
        {
          "internalType": "contract ISwapRouter",
          "name": "",
          "type": "address"
        }
      ],
      "stateMutability": "view",
      "type": "function"
    },
    {
      "inputs": [],
      "name": "token1",
      "outputs": [
        {
          "internalType": "address",
          "name": "",
          "type": "address"
        }
      ],
      "stateMutability": "view",
      "type": "function"
    },
    {
      "inputs": [],
      "name": "token2",
      "outputs": [
        {
          "internalType": "address",
          "name": "",
          "type": "address"
        }
      ],
      "stateMutability": "view",
      "type": "function"
    }
  ],
  "bytecode": "0x608060405234801561001057600080fd5b50611039806100206000396000f3fe608060405234801561001057600080fd5b50600436106100625760003560e01c806325be124e1461006757806373bd43ad1461008557806389a30271146100b5578063bc96faa9146100d3578063c31c9c0714610103578063d21220a714610121575b600080fd5b61006f61013f565b60405161007c919061093b565b60405180910390f35b61009f600480360381019061009a9190610991565b610157565b6040516100ac91906109cd565b60405180910390f35b6100bd61030b565b6040516100ca919061093b565b60405180910390f35b6100ed60048036038101906100e89190610a14565b610323565b6040516100fa91906109cd565b60405180910390f35b61010b6104c8565b6040516101189190610ada565b60405180910390f35b6101296104e0565b604051610136919061093b565b60405180910390f35b736b175474e89094c44da98b954eedeac495271d0f81565b600061017973c02aaa39b223fe8d0a0e5c4f27ead9083c756cc23330856104f8565b6101ac73c02aaa39b223fe8d0a0e5c4f27ead9083c756cc273e592427a0aece92de3edee1f18e0157c0586156484610650565b600060405180610100016040528073c02aaa39b223fe8d0a0e5c4f27ead9083c756cc273ffffffffffffffffffffffffffffffffffffffff168152602001736b175474e89094c44da98b954eedeac495271d0f73ffffffffffffffffffffffffffffffffffffffff168152602001610bb862ffffff1681526020013373ffffffffffffffffffffffffffffffffffffffff16815260200142815260200184815260200160008152602001600073ffffffffffffffffffffffffffffffffffffffff16815250905073e592427a0aece92de3edee1f18e0157c0586156473ffffffffffffffffffffffffffffffffffffffff1663414bf389826040518263ffffffff1660e01b81526004016102c09190610be2565b6020604051808303816000875af11580156102df573d6000803e3d6000fd5b505050506040513d601f19601f820116820180604052508101906103039190610c13565b915050919050565b73a0b86991c6218b36c1d19d4a2e9eb0ce3606eb4881565b6000610331853330856104f8565b6103508573e592427a0aece92de3edee1f18e0157c0586156484610650565b60006040518061010001604052808773ffffffffffffffffffffffffffffffffffffffff1681526020018673ffffffffffffffffffffffffffffffffffffffff168152602001610bb862ffffff1681526020013373ffffffffffffffffffffffffffffffffffffffff168152602001428152602001858152602001848152602001600073ffffffffffffffffffffffffffffffffffffffff16815250905073e592427a0aece92de3edee1f18e0157c0586156473ffffffffffffffffffffffffffffffffffffffff1663db3e2198826040518263ffffffff1660e01b815260040161043b9190610ce2565b6020604051808303816000875af115801561045a573d6000803e3d6000fd5b505050506040513d601f19601f8201168201806040525081019061047e9190610c13565b9150828210156104bf576104a88673e592427a0aece92de3edee1f18e0157c058615646000610650565b6104be863384866104b99190610d2d565b6107a5565b5b50949350505050565b73e592427a0aece92de3edee1f18e0157c0586156481565b73c02aaa39b223fe8d0a0e5c4f27ead9083c756cc281565b6000808573ffffffffffffffffffffffffffffffffffffffff166323b872dd60e01b86868660405160240161052f93929190610d61565b604051602081830303815290604052907bffffffffffffffffffffffffffffffffffffffffffffffffffffffff19166020820180517bffffffffffffffffffffffffffffffffffffffffffffffffffffffff83818316178352505050506040516105999190610e09565b6000604051808303816000865af19150503d80600081146105d6576040519150601f19603f3d011682016040523d82523d6000602084013e6105db565b606091505b509150915081801561060957506000815114806106085750808060200190518101906106079190610e58565b5b5b610648576040517f08c379a000000000000000000000000000000000000000000000000000000000815260040161063f90610ee2565b60405180910390fd5b505050505050565b6000808473ffffffffffffffffffffffffffffffffffffffff1663095ea7b360e01b8585604051602401610685929190610f02565b604051602081830303815290604052907bffffffffffffffffffffffffffffffffffffffffffffffffffffffff19166020820180517bffffffffffffffffffffffffffffffffffffffffffffffffffffffff83818316178352505050506040516106ef9190610e09565b6000604051808303816000865af19150503d806000811461072c576040519150601f19603f3d011682016040523d82523d6000602084013e610731565b606091505b509150915081801561075f575060008151148061075e57508080602001905181019061075d9190610e58565b5b5b61079e576040517f08c379a000000000000000000000000000000000000000000000000000000000815260040161079590610f77565b60405180910390fd5b5050505050565b6000808473ffffffffffffffffffffffffffffffffffffffff1663a9059cbb60e01b85856040516024016107da929190610f02565b604051602081830303815290604052907bffffffffffffffffffffffffffffffffffffffffffffffffffffffff19166020820180517bffffffffffffffffffffffffffffffffffffffffffffffffffffffff83818316178352505050506040516108449190610e09565b6000604051808303816000865af19150503d8060008114610881576040519150601f19603f3d011682016040523d82523d6000602084013e610886565b606091505b50915091508180156108b457506000815114806108b35750808060200190518101906108b29190610e58565b5b5b6108f3576040517f08c379a00000000000000000000000000000000000000000000000000000000081526004016108ea90610fe3565b60405180910390fd5b5050505050565b600073ffffffffffffffffffffffffffffffffffffffff82169050919050565b6000610925826108fa565b9050919050565b6109358161091a565b82525050565b6000602082019050610950600083018461092c565b92915050565b600080fd5b6000819050919050565b61096e8161095b565b811461097957600080fd5b50565b60008135905061098b81610965565b92915050565b6000602082840312156109a7576109a6610956565b5b60006109b58482850161097c565b91505092915050565b6109c78161095b565b82525050565b60006020820190506109e260008301846109be565b92915050565b6109f18161091a565b81146109fc57600080fd5b50565b600081359050610a0e816109e8565b92915050565b60008060008060808587031215610a2e57610a2d610956565b5b6000610a3c878288016109ff565b9450506020610a4d878288016109ff565b9350506040610a5e8782880161097c565b9250506060610a6f8782880161097c565b91505092959194509250565b6000819050919050565b6000610aa0610a9b610a96846108fa565b610a7b565b6108fa565b9050919050565b6000610ab282610a85565b9050919050565b6000610ac482610aa7565b9050919050565b610ad481610ab9565b82525050565b6000602082019050610aef6000830184610acb565b92915050565b610afe8161091a565b82525050565b600062ffffff82169050919050565b610b1c81610b04565b82525050565b610b2b8161095b565b82525050565b610b3a816108fa565b82525050565b61010082016000820151610b576000850182610af5565b506020820151610b6a6020850182610af5565b506040820151610b7d6040850182610b13565b506060820151610b906060850182610af5565b506080820151610ba36080850182610b22565b5060a0820151610bb660a0850182610b22565b5060c0820151610bc960c0850182610b22565b5060e0820151610bdc60e0850182610b31565b50505050565b600061010082019050610bf86000830184610b40565b92915050565b600081519050610c0d81610965565b92915050565b600060208284031215610c2957610c28610956565b5b6000610c3784828501610bfe565b91505092915050565b61010082016000820151610c576000850182610af5565b506020820151610c6a6020850182610af5565b506040820151610c7d6040850182610b13565b506060820151610c906060850182610af5565b506080820151610ca36080850182610b22565b5060a0820151610cb660a0850182610b22565b5060c0820151610cc960c0850182610b22565b5060e0820151610cdc60e0850182610b31565b50505050565b600061010082019050610cf86000830184610c40565b92915050565b7f4e487b7100000000000000000000000000000000000000000000000000000000600052601160045260246000fd5b6000610d388261095b565b9150610d438361095b565b9250828203905081811115610d5b57610d5a610cfe565b5b92915050565b6000606082019050610d76600083018661092c565b610d83602083018561092c565b610d9060408301846109be565b949350505050565b600081519050919050565b600081905092915050565b60005b83811015610dcc578082015181840152602081019050610db1565b60008484015250505050565b6000610de382610d98565b610ded8185610da3565b9350610dfd818560208601610dae565b80840191505092915050565b6000610e158284610dd8565b915081905092915050565b60008115159050919050565b610e3581610e20565b8114610e4057600080fd5b50565b600081519050610e5281610e2c565b92915050565b600060208284031215610e6e57610e6d610956565b5b6000610e7c84828501610e43565b91505092915050565b600082825260208201905092915050565b7f5354460000000000000000000000000000000000000000000000000000000000600082015250565b6000610ecc600383610e85565b9150610ed782610e96565b602082019050919050565b60006020820190508181036000830152610efb81610ebf565b9050919050565b6000604082019050610f17600083018561092c565b610f2460208301846109be565b9392505050565b7f5341000000000000000000000000000000000000000000000000000000000000600082015250565b6000610f61600283610e85565b9150610f6c82610f2b565b602082019050919050565b60006020820190508181036000830152610f9081610f54565b9050919050565b7f5354000000000000000000000000000000000000000000000000000000000000600082015250565b6000610fcd600283610e85565b9150610fd882610f97565b602082019050919050565b60006020820190508181036000830152610ffc81610fc0565b905091905056fea264697066735822122091981d4dcea3fe189af84f8e36d5bd6f039340d95a867cecf7dc83d323b8ce8564736f6c63430008120033",
  "linkReferences": {},
  "deployedLinkReferences": {}
}