{
  "_format": "hh-sol-artifact-1",
  "contractName": "SingleSwapToken",
  "sourceName": "contracts/SwapToken.sol",
  "abi": [
    {
      "inputs": [],
      "name": "USDC",
      "outputs": [
        {
          "internalType": "address",
          "name": "",
          "type": "address"
        }
      ],
      "stateMutability": "view",
      "type": "function"
    },
    {
      "inputs": [
        {
          "internalType": "uint256",
          "name": "amountIn",
          "type": "uint256"
        }
      ],
      "name": "swapExactInputSingle",
      "outputs": [
        {
          "internalType": "uint256",
          "name": "amountOut",
          "type": "uint256"
        }
      ],
      "stateMutability": "nonpayable",
      "type": "function"
    },
    {
      "inputs": [
        {
          "internalType": "address",
          "name": "token1",
          "type": "address"
        },
        {
          "internalType": "address",
          "name": "token2",
          "type": "address"
        },
        {
          "internalType": "uint256",
          "name": "amountOut",
          "type": "uint256"
        },
        {
          "internalType": "uint256",
          "name": "amountInMaximum",
          "type": "uint256"
        }
      ],
      "name": "swapExactOutputSingle",
      "outputs": [
        {
          "internalType": "uint256",
          "name": "amountIn",
          "type": "uint256"
        }
      ],
      "stateMutability": "nonpayable",
      "type": "function"
    },
    {
      "inputs": [],
      "name": "swapRouter",
      "outputs": [
        {
          "internalType": "contract ISwapRouter",
          "name": "",
          "type": "address"
        }
      ],
      "stateMutability": "view",
      "type": "function"
    },
    {
      "inputs": [],
      "name": "token1",
      "outputs": [
        {
          "internalType": "address",
          "name": "",
          "type": "address"
        }
      ],
      "stateMutability": "view",
      "type": "function"
    },
    {
      "inputs": [],
      "name": "token2",
      "outputs": [
        {
          "internalType": "address",
          "name": "",
          "type": "address"
        }
      ],
      "stateMutability": "view",
      "type": "function"
    }
  ],
  "bytecode": "0x608060405234801561001057600080fd5b50611025806100206000396000f3fe608060405234801561001057600080fd5b50600436106100625760003560e01c806325be124e1461006757806373bd43ad1461008557806389a30271146100b5578063bc96faa9146100d3578063c31c9c0714610103578063d21220a714610121575b600080fd5b61006f61013f565b60405161007c9190610927565b60405180910390f35b61009f600480360381019061009a919061097d565b610157565b6040516100ac91906109b9565b60405180910390f35b6100bd61030b565b6040516100ca9190610927565b60405180910390f35b6100ed60048036038101906100e89190610a00565b610323565b6040516100fa91906109b9565b60405180910390f35b61010b6104b4565b6040516101189190610ac6565b60405180910390f35b6101296104cc565b6040516101369190610927565b60405180910390f35b736b175474e89094c44da98b954eedeac495271d0f81565b600061017973c02aaa39b223fe8d0a0e5c4f27ead9083c756cc23330856104e4565b6101ac73c02aaa39b223fe8d0a0e5c4f27ead9083c756cc273e592427a0aece92de3edee1f18e0157c058615648461063c565b600060405180610100016040528073c02aaa39b223fe8d0a0e5c4f27ead9083c756cc273ffffffffffffffffffffffffffffffffffffffff168152602001736b175474e89094c44da98b954eedeac495271d0f73ffffffffffffffffffffffffffffffffffffffff168152602001610bb862ffffff1681526020013373ffffffffffffffffffffffffffffffffffffffff16815260200142815260200184815260200160008152602001600073ffffffffffffffffffffffffffffffffffffffff16815250905073e592427a0aece92de3edee1f18e0157c0586156473ffffffffffffffffffffffffffffffffffffffff1663414bf389826040518263ffffffff1660e01b81526004016102c09190610bce565b6020604051808303816000875af11580156102df573d6000803e3d6000fd5b505050506040513d601f19601f820116820180604052508101906103039190610bff565b915050919050565b73a0b86991c6218b36c1d19d4a2e9eb0ce3606eb4881565b6000610331843330856104e4565b61033c84308461063c565b60006040518061010001604052808773ffffffffffffffffffffffffffffffffffffffff1681526020018673ffffffffffffffffffffffffffffffffffffffff168152602001610bb862ffffff1681526020013373ffffffffffffffffffffffffffffffffffffffff168152602001428152602001858152602001848152602001600073ffffffffffffffffffffffffffffffffffffffff16815250905073e592427a0aece92de3edee1f18e0157c0586156473ffffffffffffffffffffffffffffffffffffffff1663db3e2198826040518263ffffffff1660e01b81526004016104279190610cce565b6020604051808303816000875af1158015610446573d6000803e3d6000fd5b505050506040513d601f19601f8201168201806040525081019061046a9190610bff565b9150828210156104ab576104948673e592427a0aece92de3edee1f18e0157c05861564600061063c565b6104aa863384866104a59190610d19565b610791565b5b50949350505050565b73e592427a0aece92de3edee1f18e0157c0586156481565b73c02aaa39b223fe8d0a0e5c4f27ead9083c756cc281565b6000808573ffffffffffffffffffffffffffffffffffffffff166323b872dd60e01b86868660405160240161051b93929190610d4d565b604051602081830303815290604052907bffffffffffffffffffffffffffffffffffffffffffffffffffffffff19166020820180517bffffffffffffffffffffffffffffffffffffffffffffffffffffffff83818316178352505050506040516105859190610df5565b6000604051808303816000865af19150503d80600081146105c2576040519150601f19603f3d011682016040523d82523d6000602084013e6105c7565b606091505b50915091508180156105f557506000815114806105f45750808060200190518101906105f39190610e44565b5b5b610634576040517f08c379a000000000000000000000000000000000000000000000000000000000815260040161062b90610ece565b60405180910390fd5b505050505050565b6000808473ffffffffffffffffffffffffffffffffffffffff1663095ea7b360e01b8585604051602401610671929190610eee565b604051602081830303815290604052907bffffffffffffffffffffffffffffffffffffffffffffffffffffffff19166020820180517bffffffffffffffffffffffffffffffffffffffffffffffffffffffff83818316178352505050506040516106db9190610df5565b6000604051808303816000865af19150503d8060008114610718576040519150601f19603f3d011682016040523d82523d6000602084013e61071d565b606091505b509150915081801561074b575060008151148061074a5750808060200190518101906107499190610e44565b5b5b61078a576040517f08c379a000000000000000000000000000000000000000000000000000000000815260040161078190610f63565b60405180910390fd5b5050505050565b6000808473ffffffffffffffffffffffffffffffffffffffff1663a9059cbb60e01b85856040516024016107c6929190610eee565b604051602081830303815290604052907bffffffffffffffffffffffffffffffffffffffffffffffffffffffff19166020820180517bffffffffffffffffffffffffffffffffffffffffffffffffffffffff83818316178352505050506040516108309190610df5565b6000604051808303816000865af19150503d806000811461086d576040519150601f19603f3d011682016040523d82523d6000602084013e610872565b606091505b50915091508180156108a0575060008151148061089f57508080602001905181019061089e9190610e44565b5b5b6108df576040517f08c379a00000000000000000000000000000000000000000000000000000000081526004016108d690610fcf565b60405180910390fd5b5050505050565b600073ffffffffffffffffffffffffffffffffffffffff82169050919050565b6000610911826108e6565b9050919050565b61092181610906565b82525050565b600060208201905061093c6000830184610918565b92915050565b600080fd5b6000819050919050565b61095a81610947565b811461096557600080fd5b50565b60008135905061097781610951565b92915050565b60006020828403121561099357610992610942565b5b60006109a184828501610968565b91505092915050565b6109b381610947565b82525050565b60006020820190506109ce60008301846109aa565b92915050565b6109dd81610906565b81146109e857600080fd5b50565b6000813590506109fa816109d4565b92915050565b60008060008060808587031215610a1a57610a19610942565b5b6000610a28878288016109eb565b9450506020610a39878288016109eb565b9350506040610a4a87828801610968565b9250506060610a5b87828801610968565b91505092959194509250565b6000819050919050565b6000610a8c610a87610a82846108e6565b610a67565b6108e6565b9050919050565b6000610a9e82610a71565b9050919050565b6000610ab082610a93565b9050919050565b610ac081610aa5565b82525050565b6000602082019050610adb6000830184610ab7565b92915050565b610aea81610906565b82525050565b600062ffffff82169050919050565b610b0881610af0565b82525050565b610b1781610947565b82525050565b610b26816108e6565b82525050565b61010082016000820151610b436000850182610ae1565b506020820151610b566020850182610ae1565b506040820151610b696040850182610aff565b506060820151610b7c6060850182610ae1565b506080820151610b8f6080850182610b0e565b5060a0820151610ba260a0850182610b0e565b5060c0820151610bb560c0850182610b0e565b5060e0820151610bc860e0850182610b1d565b50505050565b600061010082019050610be46000830184610b2c565b92915050565b600081519050610bf981610951565b92915050565b600060208284031215610c1557610c14610942565b5b6000610c2384828501610bea565b91505092915050565b61010082016000820151610c436000850182610ae1565b506020820151610c566020850182610ae1565b506040820151610c696040850182610aff565b506060820151610c7c6060850182610ae1565b506080820151610c8f6080850182610b0e565b5060a0820151610ca260a0850182610b0e565b5060c0820151610cb560c0850182610b0e565b5060e0820151610cc860e0850182610b1d565b50505050565b600061010082019050610ce46000830184610c2c565b92915050565b7f4e487b7100000000000000000000000000000000000000000000000000000000600052601160045260246000fd5b6000610d2482610947565b9150610d2f83610947565b9250828203905081811115610d4757610d46610cea565b5b92915050565b6000606082019050610d626000830186610918565b610d6f6020830185610918565b610d7c60408301846109aa565b949350505050565b600081519050919050565b600081905092915050565b60005b83811015610db8578082015181840152602081019050610d9d565b60008484015250505050565b6000610dcf82610d84565b610dd98185610d8f565b9350610de9818560208601610d9a565b80840191505092915050565b6000610e018284610dc4565b915081905092915050565b60008115159050919050565b610e2181610e0c565b8114610e2c57600080fd5b50565b600081519050610e3e81610e18565b92915050565b600060208284031215610e5a57610e59610942565b5b6000610e6884828501610e2f565b91505092915050565b600082825260208201905092915050565b7f5354460000000000000000000000000000000000000000000000000000000000600082015250565b6000610eb8600383610e71565b9150610ec382610e82565b602082019050919050565b60006020820190508181036000830152610ee781610eab565b9050919050565b6000604082019050610f036000830185610918565b610f1060208301846109aa565b9392505050565b7f5341000000000000000000000000000000000000000000000000000000000000600082015250565b6000610f4d600283610e71565b9150610f5882610f17565b602082019050919050565b60006020820190508181036000830152610f7c81610f40565b9050919050565b7f5354000000000000000000000000000000000000000000000000000000000000600082015250565b6000610fb9600283610e71565b9150610fc482610f83565b602082019050919050565b60006020820190508181036000830152610fe881610fac565b905091905056fea2646970667358221220277eac9bed7dc7c651e669f83ff850bea35c17d6ef48a8db5d3a7917031ead0564736f6c63430008120033",
  "linkReferences": {},
  "deployedLinkReferences": {}
}