{
  "_format": "hh-sol-artifact-1",
  "contractName": "SwapMultiHop",
  "sourceName": "contracts/SwapMultiHop.sol",
  "abi": [
    {
      "inputs": [],
      "name": "USDC",
      "outputs": [
        {
          "internalType": "address",
          "name": "",
          "type": "address"
        }
      ],
      "stateMutability": "view",
      "type": "function"
    },
    {
      "inputs": [
        {
          "internalType": "uint256",
          "name": "amountIn",
          "type": "uint256"
        }
      ],
      "name": "swapExactInputMultihop",
      "outputs": [
        {
          "internalType": "uint256",
          "name": "amountOut",
          "type": "uint256"
        }
      ],
      "stateMutability": "nonpayable",
      "type": "function"
    },
    {
      "inputs": [
        {
          "internalType": "uint256",
          "name": "amountOut",
          "type": "uint256"
        },
        {
          "internalType": "uint256",
          "name": "amountInMaximum",
          "type": "uint256"
        }
      ],
      "name": "swapExactOutputMultihop",
      "outputs": [
        {
          "internalType": "uint256",
          "name": "amountIn",
          "type": "uint256"
        }
      ],
      "stateMutability": "nonpayable",
      "type": "function"
    },
    {
      "inputs": [],
      "name": "swapRouter",
      "outputs": [
        {
          "internalType": "contract ISwapRouter",
          "name": "",
          "type": "address"
        }
      ],
      "stateMutability": "view",
      "type": "function"
    },
    {
      "inputs": [],
      "name": "token1",
      "outputs": [
        {
          "internalType": "address",
          "name": "",
          "type": "address"
        }
      ],
      "stateMutability": "view",
      "type": "function"
    },
    {
      "inputs": [],
      "name": "token2",
      "outputs": [
        {
          "internalType": "address",
          "name": "",
          "type": "address"
        }
      ],
      "stateMutability": "view",
      "type": "function"
    }
  ],
  "bytecode": "0x608060405234801561001057600080fd5b50610b61806100206000396000f3fe608060405234801561001057600080fd5b50600436106100725760003560e01c8063c31c9c0711610050578063c31c9c07146100bd578063d21220a7146100d2578063edd83557146100da57610072565b806325be124e146100775780633b85cf6a1461009557806389a30271146100b5575b600080fd5b61007f6100ed565b60405161008c9190610a36565b60405180910390f35b6100a86100a33660046108ba565b610105565b60405161008c9190610a63565b61007f6102f0565b6100c5610308565b60405161008c9190610a44565b61007f610320565b6100a86100e8366004610876565b610338565b736b175474e89094c44da98b954eedeac495271d0f81565b600061012773c02aaa39b223fe8d0a0e5c4f27ead9083c756cc23330856104d5565b61015a73c02aaa39b223fe8d0a0e5c4f27ead9083c756cc273e592427a0aece92de3edee1f18e0157c058615648461069c565b6040805160a08101909152600090806101b9736b175474e89094c44da98b954eedeac495271d0f606473a0b86991c6218b36c1d19d4a2e9eb0ce3606eb48610bb873c02aaa39b223fe8d0a0e5c4f27ead9083c756cc260c087016109dd565b60408051601f198184030181529181529082523360208301524282820152606082018790526080909101859052517ff28c049800000000000000000000000000000000000000000000000000000000815290915073e592427a0aece92de3edee1f18e0157c058615649063f28c049890610237908490600401610a52565b602060405180830381600087803b15801561025157600080fd5b505af1158015610265573d6000803e3d6000fd5b505050506040513d601f19601f82011682018060405250810190610289919061089c565b9150828210156102e9576102c773c02aaa39b223fe8d0a0e5c4f27ead9083c756cc273e592427a0aece92de3edee1f18e0157c05861564600061069c565b6102e973c02aaa39b223fe8d0a0e5c4f27ead9083c756cc230338587036104d5565b5092915050565b73a0b86991c6218b36c1d19d4a2e9eb0ce3606eb4881565b73e592427a0aece92de3edee1f18e0157c0586156481565b73c02aaa39b223fe8d0a0e5c4f27ead9083c756cc281565b600061035a73c02aaa39b223fe8d0a0e5c4f27ead9083c756cc23330856104d5565b61038d73c02aaa39b223fe8d0a0e5c4f27ead9083c756cc273e592427a0aece92de3edee1f18e0157c058615648461069c565b6040805160a08101909152600090806103ec73c02aaa39b223fe8d0a0e5c4f27ead9083c756cc2610bb873a0b86991c6218b36c1d19d4a2e9eb0ce3606eb486064736b175474e89094c44da98b954eedeac495271d0f60c087016109dd565b60405160208183030381529060405281526020013373ffffffffffffffffffffffffffffffffffffffff1681526020014281526020018481526020016000815250905073e592427a0aece92de3edee1f18e0157c0586156473ffffffffffffffffffffffffffffffffffffffff1663c04b8d59826040518263ffffffff1660e01b815260040161047c9190610a52565b602060405180830381600087803b15801561049657600080fd5b505af11580156104aa573d6000803e3d6000fd5b505050506040513d601f19601f820116820180604052508101906104ce919061089c565b9392505050565b6040805173ffffffffffffffffffffffffffffffffffffffff85811660248301528481166044830152606480830185905283518084039091018152608490920183526020820180517bffffffffffffffffffffffffffffffffffffffffffffffffffffffff167f23b872dd00000000000000000000000000000000000000000000000000000000178152925182516000948594938a169392918291908083835b602083106105945780518252601f199092019160209182019101610575565b6001836020036101000a0380198251168184511680821785525050505050509050019150506000604051808303816000865af19150503d80600081146105f6576040519150601f19603f3d011682016040523d82523d6000602084013e6105fb565b606091505b5091509150818015610629575080511580610629575080806020019051602081101561062657600080fd5b50515b61069457604080517f08c379a000000000000000000000000000000000000000000000000000000000815260206004820152600360248201527f5354460000000000000000000000000000000000000000000000000000000000604482015290519081900360640190fd5b505050505050565b6040805173ffffffffffffffffffffffffffffffffffffffff8481166024830152604480830185905283518084039091018152606490920183526020820180517bffffffffffffffffffffffffffffffffffffffffffffffffffffffff167f095ea7b3000000000000000000000000000000000000000000000000000000001781529251825160009485949389169392918291908083835b602083106107535780518252601f199092019160209182019101610734565b6001836020036101000a0380198251168184511680821785525050505050509050019150506000604051808303816000865af19150503d80600081146107b5576040519150601f19603f3d011682016040523d82523d6000602084013e6107ba565b606091505b50915091508180156107e85750805115806107e857508080602001905160208110156107e557600080fd5b50515b61085357604080517f08c379a000000000000000000000000000000000000000000000000000000000815260206004820152600260248201527f5341000000000000000000000000000000000000000000000000000000000000604482015290519081900360640190fd5b5050505050565b803561086581610b14565b92915050565b805161086581610b14565b60006020828403121561088857600080fd5b6000610894848461085a565b949350505050565b6000602082840312156108ae57600080fd5b6000610894848461086b565b600080604083850312156108cd57600080fd5b60006108d9858561085a565b92505060206108ea8582860161085a565b9150509250929050565b6108fd81610a7e565b82525050565b6108fd61090f82610a7e565b610ae2565b600061091f82610a71565b6109298185610a75565b9350610939818560208601610ab2565b61094281610afe565b9093019392505050565b6108fd81610aa7565b805160a08084526000919084019061096d8282610914565b915050602083015161098260208601826108f4565b50604083015161099560408601826109d4565b5060608301516109a860608601826109d4565b5060808301516109bb60808601826109d4565b509392505050565b6108fd6109cf82610a9c565b610af3565b6108fd81610aa4565b60006109e98288610903565b6014820191506109f982876109c3565b600382019150610a098286610903565b601482019150610a1982856109c3565b600382019150610a298284610903565b5060140195945050505050565b6020810161086582846108f4565b60208101610865828461094c565b602080825281016104ce8184610955565b6020810161086582846109d4565b5190565b90815260200190565b600073ffffffffffffffffffffffffffffffffffffffff8216610865565b62ffffff1690565b90565b600061086582610a7e565b60005b83811015610acd578181015183820152602001610ab5565b83811115610adc576000848401525b50505050565b600061086582600061086582610b0e565b600061086582610b08565b601f01601f191690565b60e81b90565b60601b90565b610b1d81610aa4565b8114610b2857600080fd5b5056fea26469706673582212202b2526060752daf281eab91acd08323969555f8d122b6c49dfafe3549808154d64736f6c63430007060033",
  "linkReferences": {},
  "deployedLinkReferences": {}
}